{
  "contractName": "VotingSys",
  "abi": [
    {
      "inputs": [],
      "stateMutability": "nonpayable",
      "type": "constructor"
    },
    {
      "inputs": [
        {
          "internalType": "uint256",
          "name": "",
          "type": "uint256"
        }
      ],
      "name": "candidates",
      "outputs": [
        {
          "internalType": "string",
          "name": "name",
          "type": "string"
        },
        {
          "internalType": "string",
          "name": "party",
          "type": "string"
        },
        {
          "internalType": "uint256",
          "name": "votes",
          "type": "uint256"
        }
      ],
      "stateMutability": "view",
      "type": "function",
      "constant": true
    },
    {
      "inputs": [],
      "name": "endDate",
      "outputs": [
        {
          "internalType": "uint256",
          "name": "",
          "type": "uint256"
        }
      ],
      "stateMutability": "view",
      "type": "function",
      "constant": true
    },
    {
      "inputs": [
        {
          "internalType": "address",
          "name": "",
          "type": "address"
        }
      ],
      "name": "hasVoted",
      "outputs": [
        {
          "internalType": "bool",
          "name": "",
          "type": "bool"
        }
      ],
      "stateMutability": "view",
      "type": "function",
      "constant": true
    },
    {
      "inputs": [
        {
          "internalType": "address",
          "name": "",
          "type": "address"
        }
      ],
      "name": "officials",
      "outputs": [
        {
          "internalType": "bool",
          "name": "",
          "type": "bool"
        }
      ],
      "stateMutability": "view",
      "type": "function",
      "constant": true
    },
    {
      "inputs": [],
      "name": "owner",
      "outputs": [
        {
          "internalType": "address",
          "name": "",
          "type": "address"
        }
      ],
      "stateMutability": "view",
      "type": "function",
      "constant": true
    },
    {
      "inputs": [],
      "name": "startDate",
      "outputs": [
        {
          "internalType": "uint256",
          "name": "",
          "type": "uint256"
        }
      ],
      "stateMutability": "view",
      "type": "function",
      "constant": true
    },
    {
      "inputs": [
        {
          "internalType": "uint256",
          "name": "",
          "type": "uint256"
        }
      ],
      "name": "votersList",
      "outputs": [
        {
          "internalType": "address",
          "name": "",
          "type": "address"
        }
      ],
      "stateMutability": "view",
      "type": "function",
      "constant": true
    },
    {
      "inputs": [
        {
          "internalType": "string",
          "name": "_name",
          "type": "string"
        },
        {
          "internalType": "string",
          "name": "_party",
          "type": "string"
        }
      ],
      "name": "registerCandidate",
      "outputs": [],
      "stateMutability": "nonpayable",
      "type": "function"
    },
    {
      "inputs": [
        {
          "internalType": "uint256",
          "name": "_start",
          "type": "uint256"
        },
        {
          "internalType": "uint256",
          "name": "_end",
          "type": "uint256"
        }
      ],
      "name": "setElectionDates",
      "outputs": [],
      "stateMutability": "nonpayable",
      "type": "function"
    },
    {
      "inputs": [
        {
          "internalType": "uint256",
          "name": "_candidateIndex",
          "type": "uint256"
        }
      ],
      "name": "vote",
      "outputs": [],
      "stateMutability": "nonpayable",
      "type": "function"
    },
    {
      "inputs": [],
      "name": "resetElection",
      "outputs": [],
      "stateMutability": "nonpayable",
      "type": "function"
    },
    {
      "inputs": [
        {
          "internalType": "uint256",
          "name": "_candidateIndex",
          "type": "uint256"
        }
      ],
      "name": "removeCandidate",
      "outputs": [],
      "stateMutability": "nonpayable",
      "type": "function"
    },
    {
      "inputs": [],
      "name": "getCandidates",
      "outputs": [
        {
          "internalType": "string[]",
          "name": "names",
          "type": "string[]"
        },
        {
          "internalType": "string[]",
          "name": "parties",
          "type": "string[]"
        },
        {
          "internalType": "uint256[]",
          "name": "votes",
          "type": "uint256[]"
        }
      ],
      "stateMutability": "view",
      "type": "function",
      "constant": true
    },
    {
      "inputs": [],
      "name": "getCandidateCount",
      "outputs": [
        {
          "internalType": "uint256",
          "name": "",
          "type": "uint256"
        }
      ],
      "stateMutability": "view",
      "type": "function",
      "constant": true
    },
    {
      "inputs": [],
      "name": "getTotalVotes",
      "outputs": [
        {
          "internalType": "uint256",
          "name": "",
          "type": "uint256"
        }
      ],
      "stateMutability": "view",
      "type": "function",
      "constant": true
    }
  ],
  "bytecode": "0x608060405234801561001057600080fd5b50600080546001600160a01b0319163390811782558152600160208190526040909120805460ff191690911790556111ef8061004d6000396000f3fe608060405234801561001057600080fd5b50600436106100f55760003560e01c80633477ee2e11610097578063c24a0f8b11610066578063c24a0f8b1461020f578063d93321ef14610218578063e8f305231461023b578063f2c405081461024357600080fd5b80633477ee2e146101a757806372ce73ab146101c95780638da5cb5b146101f45780639a0e7d661461020757600080fd5b806309eef43e116100d357806309eef43e146101425780630b97bc86146101755780630dbce4dd1461018c57806330a563471461019f57600080fd5b80630121b93f146100fa57806306a49fce1461010f57806309e9d7e21461012f575b600080fd5b61010d610108366004610c36565b610256565b005b6101176103df565b60405161012693929190610ced565b60405180910390f35b61010d61013d366004610c36565b6106cd565b610165610150366004610d56565b60056020526000908152604090205460ff1681565b6040519015158152602001610126565b61017e60035481565b604051908152602001610126565b61010d61019a366004610e29565b610813565b60025461017e565b6101ba6101b5366004610c36565b6108c6565b60405161012693929190610e8d565b6101dc6101d7366004610c36565b610a10565b6040516001600160a01b039091168152602001610126565b6000546101dc906001600160a01b031681565b60065461017e565b61017e60045481565b610165610226366004610d56565b60016020526000908152604090205460ff1681565b61010d610a3a565b61010d610251366004610ec3565b610afa565b600354421015801561026a57506004544211155b6102b15760405162461bcd60e51b8152602060048201526013602482015272456c656374696f6e206e6f742061637469766560681b60448201526064015b60405180910390fd5b3360009081526005602052604090205460ff16156103015760405162461bcd60e51b815260206004820152600d60248201526c105b1c9958591e481d9bdd1959609a1b60448201526064016102a8565b60025481106103465760405162461bcd60e51b8152602060048201526011602482015270496e76616c69642063616e64696461746560781b60448201526064016102a8565b60016002828154811061035b5761035b610ee5565b9060005260206000209060030201600201600082825461037b9190610f11565b9091555050336000818152600560205260408120805460ff191660019081179091556006805491820181559091527ff652222313e28459528d920b65115c16c04f3efc82aaedc97be59f3f377c0d3f0180546001600160a01b031916909117905550565b606080606060028054905067ffffffffffffffff81111561040257610402610d86565b60405190808252806020026020018201604052801561043557816020015b60608152602001906001900390816104205790505b5060025490935067ffffffffffffffff81111561045457610454610d86565b60405190808252806020026020018201604052801561048757816020015b60608152602001906001900390816104725790505b5060025490925067ffffffffffffffff8111156104a6576104a6610d86565b6040519080825280602002602001820160405280156104cf578160200160208202803683370190505b50905060005b6002548110156106c757600281815481106104f2576104f2610ee5565b9060005260206000209060030201600001805461050e90610f2a565b80601f016020809104026020016040519081016040528092919081815260200182805461053a90610f2a565b80156105875780601f1061055c57610100808354040283529160200191610587565b820191906000526020600020905b81548152906001019060200180831161056a57829003601f168201915b505050505084828151811061059e5761059e610ee5565b6020026020010181905250600281815481106105bc576105bc610ee5565b906000526020600020906003020160010180546105d890610f2a565b80601f016020809104026020016040519081016040528092919081815260200182805461060490610f2a565b80156106515780601f1061062657610100808354040283529160200191610651565b820191906000526020600020905b81548152906001019060200180831161063457829003601f168201915b505050505083828151811061066857610668610ee5565b60200260200101819052506002818154811061068657610686610ee5565b9060005260206000209060030201600201548282815181106106aa576106aa610ee5565b6020908102919091010152806106bf81610f64565b9150506104d5565b50909192565b3360009081526001602052604090205460ff166106fc5760405162461bcd60e51b81526004016102a890610f7d565b600254811061074d5760405162461bcd60e51b815260206004820152601760248201527f496e76616c69642063616e64696461746520696e64657800000000000000000060448201526064016102a8565b6002805461075d90600190610fa6565b8154811061076d5761076d610ee5565b90600052602060002090600302016002828154811061078e5761078e610ee5565b60009182526020909120600390910201806107a98382611008565b506001818101906107bc90840182611008565b50600291820154908201558054806107d6576107d66110e9565b600082815260208120600019909201916003830201906107f68282610b73565b610804600183016000610b73565b60028201600090555050905550565b3360009081526001602052604090205460ff166108425760405162461bcd60e51b81526004016102a890610f7d565b60408051606081018252838152602081018390526000918101829052600280546001810182559252805190916003027f405787fa12a823e0f2b7631cc41b3ba8828b3321ca811111fa75cd3aa3bb5ace019081906108a090826110ff565b50602082015160018201906108b590826110ff565b506040820151816002015550505050565b600281815481106108d657600080fd5b90600052602060002090600302016000915090508060000180546108f990610f2a565b80601f016020809104026020016040519081016040528092919081815260200182805461092590610f2a565b80156109725780601f1061094757610100808354040283529160200191610972565b820191906000526020600020905b81548152906001019060200180831161095557829003601f168201915b50505050509080600101805461098790610f2a565b80601f01602080910402602001604051908101604052809291908181526020018280546109b390610f2a565b8015610a005780601f106109d557610100808354040283529160200191610a00565b820191906000526020600020905b8154815290600101906020018083116109e357829003601f168201915b5050505050908060020154905083565b60068181548110610a2057600080fd5b6000918252602090912001546001600160a01b0316905081565b3360009081526001602052604090205460ff16610a695760405162461bcd60e51b81526004016102a890610f7d565b610a7560026000610bb0565b60005b600654811015610ae15760006005600060068481548110610a9b57610a9b610ee5565b6000918252602080832091909101546001600160a01b031683528201929092526040019020805460ff191691151591909117905580610ad981610f64565b915050610a78565b50610aee60066000610bd1565b60006003819055600455565b3360009081526001602052604090205460ff16610b295760405162461bcd60e51b81526004016102a890610f7d565b808210610b685760405162461bcd60e51b815260206004820152600d60248201526c496e76616c696420646174657360981b60448201526064016102a8565b600391909155600455565b508054610b7f90610f2a565b6000825580601f10610b8f575050565b601f016020900490600052602060002090810190610bad9190610beb565b50565b5080546000825560030290600052602060002090810190610bad9190610c04565b5080546000825590600052602060002090810190610bad91905b5b80821115610c005760008155600101610bec565b5090565b80821115610c00576000610c188282610b73565b610c26600183016000610b73565b5060006002820155600301610c04565b600060208284031215610c4857600080fd5b5035919050565b6000815180845260005b81811015610c7557602081850181015186830182015201610c59565b506000602082860101526020601f19601f83011685010191505092915050565b600082825180855260208086019550808260051b84010181860160005b84811015610ce057601f19868403018952610cce838351610c4f565b98840198925090830190600101610cb2565b5090979650505050505050565b606081526000610d006060830186610c95565b602083820381850152610d138287610c95565b8481036040860152855180825282870193509082019060005b81811015610d4857845183529383019391830191600101610d2c565b509098975050505050505050565b600060208284031215610d6857600080fd5b81356001600160a01b0381168114610d7f57600080fd5b9392505050565b634e487b7160e01b600052604160045260246000fd5b600082601f830112610dad57600080fd5b813567ffffffffffffffff80821115610dc857610dc8610d86565b604051601f8301601f19908116603f01168101908282118183101715610df057610df0610d86565b81604052838152866020858801011115610e0957600080fd5b836020870160208301376000602085830101528094505050505092915050565b60008060408385031215610e3c57600080fd5b823567ffffffffffffffff80821115610e5457600080fd5b610e6086838701610d9c565b93506020850135915080821115610e7657600080fd5b50610e8385828601610d9c565b9150509250929050565b606081526000610ea06060830186610c4f565b8281036020840152610eb28186610c4f565b915050826040830152949350505050565b60008060408385031215610ed657600080fd5b50508035926020909101359150565b634e487b7160e01b600052603260045260246000fd5b634e487b7160e01b600052601160045260246000fd5b80820180821115610f2457610f24610efb565b92915050565b600181811c90821680610f3e57607f821691505b602082108103610f5e57634e487b7160e01b600052602260045260246000fd5b50919050565b600060018201610f7657610f76610efb565b5060010190565b6020808252600f908201526e139bdd08185b881bd9999a58da585b608a1b604082015260600190565b81810381811115610f2457610f24610efb565b601f82111561100357600081815260208120601f850160051c81016020861015610fe05750805b601f850160051c820191505b81811015610fff57828155600101610fec565b5050505b505050565b818103611013575050565b61101d8254610f2a565b67ffffffffffffffff81111561103557611035610d86565b611049816110438454610f2a565b84610fb9565b6000601f82116001811461107d57600083156110655750848201545b600019600385901b1c1916600184901b1784556110e2565b600085815260209020601f19841690600086815260209020845b838110156110b75782860154825560019586019590910190602001611097565b50858310156110d55781850154600019600388901b60f8161c191681555b50505060018360011b0184555b5050505050565b634e487b7160e01b600052603160045260246000fd5b815167ffffffffffffffff81111561111957611119610d86565b611127816110438454610f2a565b602080601f83116001811461115c57600084156111445750858301515b600019600386901b1c1916600185901b178555610fff565b600085815260208120601f198616915b8281101561118b5788860151825594840194600190910190840161116c565b50858210156111a95787850151600019600388901b60f8161c191681555b5050505050600190811b0190555056fea2646970667358221220a66cf24e678774aed219fe53ec981aaeb012d1346f189ba2fb965d707fac2a5e64736f6c63430008130033",
  "immutableReferences": {},
  "source": "// SPDX-License-Identifier: MIT\r\npragma solidity ^0.8.0;\r\n\r\ncontract VotingSys {\r\n    struct Candidate {\r\n        string name;\r\n        string party;\r\n        uint votes;\r\n    }\r\n\r\n    address public owner;\r\n    mapping(address => bool) public officials;\r\n    Candidate[] public candidates;\r\n\r\n    uint public startDate;\r\n    uint public endDate;\r\n\r\n    mapping(address => bool) public hasVoted;\r\n    address[] public votersList; // Track all voters for reset functionality\r\n\r\n    constructor() {\r\n        owner = msg.sender;\r\n        officials[msg.sender] = true;\r\n    }\r\n\r\n    modifier onlyOfficial() {\r\n        require(officials[msg.sender], \"Not an official\");\r\n        _;\r\n    }\r\n\r\n    modifier electionActive() {\r\n        require(block.timestamp >= startDate && block.timestamp <= endDate, \"Election not active\");\r\n        _;\r\n    }\r\n\r\n    function registerCandidate(string memory _name, string memory _party) external onlyOfficial {\r\n        candidates.push(Candidate(_name, _party, 0));\r\n    }\r\n\r\n    function setElectionDates(uint _start, uint _end) external onlyOfficial {\r\n        require(_start < _end, \"Invalid dates\");\r\n        startDate = _start;\r\n        endDate = _end;\r\n    }\r\n\r\n    function vote(uint _candidateIndex) external electionActive {\r\n        require(!hasVoted[msg.sender], \"Already voted\");\r\n        require(_candidateIndex < candidates.length, \"Invalid candidate\");\r\n\r\n        candidates[_candidateIndex].votes += 1;\r\n        hasVoted[msg.sender] = true;\r\n        \r\n        // Track voter for reset functionality\r\n        votersList.push(msg.sender);\r\n    }\r\n\r\n    // New function: Reset election - clears all candidates, votes, and voting records\r\n    function resetElection() external onlyOfficial {\r\n        // Clear all candidates\r\n        delete candidates;\r\n        \r\n        // Reset all voters' voting status\r\n        for (uint i = 0; i < votersList.length; i++) {\r\n            hasVoted[votersList[i]] = false;\r\n        }\r\n        \r\n        // Clear voters list\r\n        delete votersList;\r\n        \r\n        // Reset election dates\r\n        startDate = 0;\r\n        endDate = 0;\r\n    }\r\n\r\n    // New function: Remove specific candidate (alternative to full reset)\r\n    function removeCandidate(uint _candidateIndex) external onlyOfficial {\r\n        require(_candidateIndex < candidates.length, \"Invalid candidate index\");\r\n        \r\n        // Move the last candidate to the deleted position\r\n        candidates[_candidateIndex] = candidates[candidates.length - 1];\r\n        \r\n        // Remove the last candidate\r\n        candidates.pop();\r\n    }\r\n\r\n    // Return separate arrays to avoid Web3 decoding errors\r\n    function getCandidates() external view returns (\r\n        string[] memory names,\r\n        string[] memory parties,\r\n        uint[] memory votes\r\n    ) {\r\n        names = new string[](candidates.length);\r\n        parties = new string[](candidates.length);\r\n        votes = new uint[](candidates.length);\r\n\r\n        for (uint i = 0; i < candidates.length; i++) {\r\n            names[i] = candidates[i].name;\r\n            parties[i] = candidates[i].party;\r\n            votes[i] = candidates[i].votes;\r\n        }\r\n    }\r\n\r\n    // Get total number of candidates\r\n    function getCandidateCount() external view returns (uint) {\r\n        return candidates.length;\r\n    }\r\n\r\n    // Get total number of votes cast\r\n    function getTotalVotes() external view returns (uint) {\r\n        return votersList.length;\r\n    }\r\n}",
  "sourcePath": "C:\\Users\\Placiidjay\\Desktop\\Try\\contracts\\VotingSys.sol",
  "compiler": {
    "name": "solc",
    "version": "0.8.19+commit.7dd6d404.Emscripten.clang"
  },
  "schemaVersion": "3.4.16",
  "updatedAt": "2025-08-22T04:53:28.821Z",
  "networkType": "ethereum",
  "devdoc": {
    "kind": "dev",
    "methods": {},
    "version": 1
  },
  "userdoc": {
    "kind": "user",
    "methods": {},
    "version": 1
  }
}