{
  "contractName": "VotingSys",
  "abi": [
    {
      "inputs": [],
      "stateMutability": "nonpayable",
      "type": "constructor"
    },
    {
      "anonymous": false,
      "inputs": [
        {
          "indexed": true,
          "internalType": "address",
          "name": "official",
          "type": "address"
        }
      ],
      "name": "OfficialAdded",
      "type": "event"
    },
    {
      "anonymous": false,
      "inputs": [
        {
          "indexed": true,
          "internalType": "address",
          "name": "official",
          "type": "address"
        }
      ],
      "name": "OfficialRemoved",
      "type": "event"
    },
    {
      "anonymous": false,
      "inputs": [
        {
          "indexed": true,
          "internalType": "uint256",
          "name": "proposalId",
          "type": "uint256"
        },
        {
          "indexed": true,
          "internalType": "address",
          "name": "official",
          "type": "address"
        }
      ],
      "name": "ProposalConfirmed",
      "type": "event"
    },
    {
      "anonymous": false,
      "inputs": [
        {
          "indexed": true,
          "internalType": "uint256",
          "name": "proposalId",
          "type": "uint256"
        },
        {
          "indexed": false,
          "internalType": "enum VotingSys.ProposalType",
          "name": "proposalType",
          "type": "uint8"
        },
        {
          "indexed": true,
          "internalType": "address",
          "name": "proposer",
          "type": "address"
        }
      ],
      "name": "ProposalCreated",
      "type": "event"
    },
    {
      "anonymous": false,
      "inputs": [
        {
          "indexed": true,
          "internalType": "uint256",
          "name": "proposalId",
          "type": "uint256"
        }
      ],
      "name": "ProposalExecuted",
      "type": "event"
    },
    {
      "anonymous": false,
      "inputs": [
        {
          "indexed": false,
          "internalType": "uint256",
          "name": "newRequiredConfirmations",
          "type": "uint256"
        }
      ],
      "name": "RequiredConfirmationsChanged",
      "type": "event"
    },
    {
      "inputs": [
        {
          "internalType": "uint256",
          "name": "",
          "type": "uint256"
        }
      ],
      "name": "candidates",
      "outputs": [
        {
          "internalType": "string",
          "name": "name",
          "type": "string"
        },
        {
          "internalType": "string",
          "name": "party",
          "type": "string"
        },
        {
          "internalType": "uint256",
          "name": "votes",
          "type": "uint256"
        }
      ],
      "stateMutability": "view",
      "type": "function",
      "constant": true
    },
    {
      "inputs": [],
      "name": "endDate",
      "outputs": [
        {
          "internalType": "uint256",
          "name": "",
          "type": "uint256"
        }
      ],
      "stateMutability": "view",
      "type": "function",
      "constant": true
    },
    {
      "inputs": [
        {
          "internalType": "address",
          "name": "",
          "type": "address"
        }
      ],
      "name": "hasVoted",
      "outputs": [
        {
          "internalType": "bool",
          "name": "",
          "type": "bool"
        }
      ],
      "stateMutability": "view",
      "type": "function",
      "constant": true
    },
    {
      "inputs": [
        {
          "internalType": "address",
          "name": "",
          "type": "address"
        }
      ],
      "name": "officials",
      "outputs": [
        {
          "internalType": "bool",
          "name": "",
          "type": "bool"
        }
      ],
      "stateMutability": "view",
      "type": "function",
      "constant": true
    },
    {
      "inputs": [
        {
          "internalType": "uint256",
          "name": "",
          "type": "uint256"
        }
      ],
      "name": "officialsList",
      "outputs": [
        {
          "internalType": "address",
          "name": "",
          "type": "address"
        }
      ],
      "stateMutability": "view",
      "type": "function",
      "constant": true
    },
    {
      "inputs": [],
      "name": "owner",
      "outputs": [
        {
          "internalType": "address",
          "name": "",
          "type": "address"
        }
      ],
      "stateMutability": "view",
      "type": "function",
      "constant": true
    },
    {
      "inputs": [
        {
          "internalType": "uint256",
          "name": "",
          "type": "uint256"
        }
      ],
      "name": "pendingProposals",
      "outputs": [
        {
          "internalType": "uint256",
          "name": "",
          "type": "uint256"
        }
      ],
      "stateMutability": "view",
      "type": "function",
      "constant": true
    },
    {
      "inputs": [],
      "name": "proposalCount",
      "outputs": [
        {
          "internalType": "uint256",
          "name": "",
          "type": "uint256"
        }
      ],
      "stateMutability": "view",
      "type": "function",
      "constant": true
    },
    {
      "inputs": [
        {
          "internalType": "uint256",
          "name": "",
          "type": "uint256"
        }
      ],
      "name": "proposals",
      "outputs": [
        {
          "internalType": "uint256",
          "name": "id",
          "type": "uint256"
        },
        {
          "internalType": "enum VotingSys.ProposalType",
          "name": "proposalType",
          "type": "uint8"
        },
        {
          "internalType": "bytes",
          "name": "data",
          "type": "bytes"
        },
        {
          "internalType": "address",
          "name": "proposer",
          "type": "address"
        },
        {
          "internalType": "uint256",
          "name": "confirmations",
          "type": "uint256"
        },
        {
          "internalType": "bool",
          "name": "executed",
          "type": "bool"
        },
        {
          "internalType": "uint256",
          "name": "timestamp",
          "type": "uint256"
        }
      ],
      "stateMutability": "view",
      "type": "function",
      "constant": true
    },
    {
      "inputs": [],
      "name": "requiredConfirmations",
      "outputs": [
        {
          "internalType": "uint256",
          "name": "",
          "type": "uint256"
        }
      ],
      "stateMutability": "view",
      "type": "function",
      "constant": true
    },
    {
      "inputs": [],
      "name": "startDate",
      "outputs": [
        {
          "internalType": "uint256",
          "name": "",
          "type": "uint256"
        }
      ],
      "stateMutability": "view",
      "type": "function",
      "constant": true
    },
    {
      "inputs": [
        {
          "internalType": "uint256",
          "name": "",
          "type": "uint256"
        }
      ],
      "name": "votersList",
      "outputs": [
        {
          "internalType": "address",
          "name": "",
          "type": "address"
        }
      ],
      "stateMutability": "view",
      "type": "function",
      "constant": true
    },
    {
      "inputs": [
        {
          "internalType": "string",
          "name": "_name",
          "type": "string"
        },
        {
          "internalType": "string",
          "name": "_party",
          "type": "string"
        }
      ],
      "name": "registerCandidate",
      "outputs": [],
      "stateMutability": "nonpayable",
      "type": "function"
    },
    {
      "inputs": [
        {
          "internalType": "uint256",
          "name": "_start",
          "type": "uint256"
        },
        {
          "internalType": "uint256",
          "name": "_end",
          "type": "uint256"
        }
      ],
      "name": "setElectionDates",
      "outputs": [],
      "stateMutability": "nonpayable",
      "type": "function"
    },
    {
      "inputs": [
        {
          "internalType": "uint256",
          "name": "_candidateIndex",
          "type": "uint256"
        }
      ],
      "name": "vote",
      "outputs": [],
      "stateMutability": "nonpayable",
      "type": "function"
    },
    {
      "inputs": [],
      "name": "resetElection",
      "outputs": [],
      "stateMutability": "nonpayable",
      "type": "function"
    },
    {
      "inputs": [
        {
          "internalType": "uint256",
          "name": "_candidateIndex",
          "type": "uint256"
        }
      ],
      "name": "removeCandidate",
      "outputs": [],
      "stateMutability": "nonpayable",
      "type": "function"
    },
    {
      "inputs": [],
      "name": "getCandidates",
      "outputs": [
        {
          "internalType": "string[]",
          "name": "names",
          "type": "string[]"
        },
        {
          "internalType": "string[]",
          "name": "parties",
          "type": "string[]"
        },
        {
          "internalType": "uint256[]",
          "name": "votes",
          "type": "uint256[]"
        }
      ],
      "stateMutability": "view",
      "type": "function",
      "constant": true
    },
    {
      "inputs": [],
      "name": "getCandidateCount",
      "outputs": [
        {
          "internalType": "uint256",
          "name": "",
          "type": "uint256"
        }
      ],
      "stateMutability": "view",
      "type": "function",
      "constant": true
    },
    {
      "inputs": [],
      "name": "getTotalVotes",
      "outputs": [
        {
          "internalType": "uint256",
          "name": "",
          "type": "uint256"
        }
      ],
      "stateMutability": "view",
      "type": "function",
      "constant": true
    },
    {
      "inputs": [
        {
          "internalType": "uint256",
          "name": "_required",
          "type": "uint256"
        }
      ],
      "name": "updateRequiredConfirmations",
      "outputs": [],
      "stateMutability": "nonpayable",
      "type": "function"
    },
    {
      "inputs": [
        {
          "internalType": "address",
          "name": "_official",
          "type": "address"
        }
      ],
      "name": "addOfficial",
      "outputs": [],
      "stateMutability": "nonpayable",
      "type": "function"
    },
    {
      "inputs": [
        {
          "internalType": "string",
          "name": "_name",
          "type": "string"
        },
        {
          "internalType": "string",
          "name": "_party",
          "type": "string"
        }
      ],
      "name": "proposeAddCandidate",
      "outputs": [],
      "stateMutability": "nonpayable",
      "type": "function"
    },
    {
      "inputs": [
        {
          "internalType": "uint256",
          "name": "_start",
          "type": "uint256"
        },
        {
          "internalType": "uint256",
          "name": "_end",
          "type": "uint256"
        }
      ],
      "name": "proposeSetElectionDates",
      "outputs": [],
      "stateMutability": "nonpayable",
      "type": "function"
    },
    {
      "inputs": [],
      "name": "proposeResetElection",
      "outputs": [],
      "stateMutability": "nonpayable",
      "type": "function"
    },
    {
      "inputs": [
        {
          "internalType": "uint256",
          "name": "_proposalId",
          "type": "uint256"
        }
      ],
      "name": "confirmProposal",
      "outputs": [],
      "stateMutability": "nonpayable",
      "type": "function"
    },
    {
      "inputs": [
        {
          "internalType": "uint256",
          "name": "_proposalId",
          "type": "uint256"
        }
      ],
      "name": "getProposal",
      "outputs": [
        {
          "internalType": "uint256",
          "name": "id",
          "type": "uint256"
        },
        {
          "internalType": "enum VotingSys.ProposalType",
          "name": "proposalType",
          "type": "uint8"
        },
        {
          "internalType": "address",
          "name": "proposer",
          "type": "address"
        },
        {
          "internalType": "uint256",
          "name": "confirmations",
          "type": "uint256"
        },
        {
          "internalType": "bool",
          "name": "executed",
          "type": "bool"
        },
        {
          "internalType": "uint256",
          "name": "timestamp",
          "type": "uint256"
        }
      ],
      "stateMutability": "view",
      "type": "function",
      "constant": true
    },
    {
      "inputs": [],
      "name": "getPendingProposals",
      "outputs": [
        {
          "internalType": "uint256[]",
          "name": "",
          "type": "uint256[]"
        }
      ],
      "stateMutability": "view",
      "type": "function",
      "constant": true
    },
    {
      "inputs": [],
      "name": "getOfficials",
      "outputs": [
        {
          "internalType": "address[]",
          "name": "",
          "type": "address[]"
        }
      ],
      "stateMutability": "view",
      "type": "function",
      "constant": true
    },
    {
      "inputs": [
        {
          "internalType": "uint256",
          "name": "_proposalId",
          "type": "uint256"
        },
        {
          "internalType": "address",
          "name": "_official",
          "type": "address"
        }
      ],
      "name": "hasConfirmed",
      "outputs": [
        {
          "internalType": "bool",
          "name": "",
          "type": "bool"
        }
      ],
      "stateMutability": "view",
      "type": "function",
      "constant": true
    }
  ],
  "bytecode": "0x608060405234801561001057600080fd5b50600080546001600160a01b03199081163390811783558083526001602081905260408420805460ff19168217905560028054808301825594527f405787fa12a823e0f2b7631cc41b3ba8828b3321ca811111fa75cd3aa3bb5ace909301805490921617905560045561249f806100886000396000f3fe608060405234801561001057600080fd5b50600436106101da5760003560e01c80638da5cb5b11610104578063c7f758a8116100a2578063eb24aa4811610071578063eb24aa4814610416578063f2c4050814610429578063f3563dad1461043c578063f4a4f4d21461044f57600080fd5b8063c7f758a8146103bd578063d93321ef146103e2578063da35c66414610405578063e8f305231461040e57600080fd5b8063a80db6fc116100de578063a80db6fc14610379578063ac840db01461038e578063c1da0cc4146103a1578063c24a0f8b146103b457600080fd5b80638da5cb5b146103565780639a0e7d6614610369578063a0edb24a1461037157600080fd5b80630dbce4dd1161017c5780636a61cf611161014b5780636a61cf61146102fc57806372ce73ab1461030f57806381b2db501461033a57806382e717f71461034d57600080fd5b80630dbce4dd146102aa57806330a56347146102bd5780633477ee2e146102c557806358bc7331146102e757600080fd5b806308aff933116101b857806308aff9331461023a57806309e9d7e21461025d57806309eef43e146102705780630b97bc861461029357600080fd5b80630121b93f146101df578063013cf08b146101f457806306a49fce14610223575b600080fd5b6101f26101ed366004611c3f565b610462565b005b610207610202366004611c3f565b6105eb565b60405161021a9796959493929190611ce0565b60405180910390f35b61022b6106c3565b60405161021a93929190611dc5565b61024d610248366004611e24565b6109b1565b604051901515815260200161021a565b6101f261026b366004611c3f565b6109e0565b61024d61027e366004611e50565b600a6020526000908152604090205460ff1681565b61029c60085481565b60405190815260200161021a565b6101f26102b8366004611f37565b610b27565b60035461029c565b6102d86102d3366004611c3f565b610bda565b60405161021a93929190611f9b565b6102ef610d24565b60405161021a9190611fd1565b61029c61030a366004611c3f565b610d86565b61032261031d366004611c3f565b610da7565b6040516001600160a01b03909116815260200161021a565b6101f2610348366004611c3f565b610dd1565b61029c60045481565b600054610322906001600160a01b031681565b600b5461029c565b6101f2610ebc565b610381610f43565b60405161021a919061201e565b6101f261039c366004611e50565b610f9a565b6101f26103af366004612031565b611127565b61029c60095481565b6103d06103cb366004611c3f565b6111d5565b60405161021a96959493929190612053565b61024d6103f0366004611e50565b60016020526000908152604090205460ff1681565b61029c60055481565b6101f2611275565b6101f2610424366004611f37565b611335565b6101f2610437366004612031565b611397565b61032261044a366004611c3f565b611410565b6101f261045d366004611c3f565b611420565b600854421015801561047657506009544211155b6104bd5760405162461bcd60e51b8152602060048201526013602482015272456c656374696f6e206e6f742061637469766560681b60448201526064015b60405180910390fd5b336000908152600a602052604090205460ff161561050d5760405162461bcd60e51b815260206004820152600d60248201526c105b1c9958591e481d9bdd1959609a1b60448201526064016104b4565b60035481106105525760405162461bcd60e51b8152602060048201526011602482015270496e76616c69642063616e64696461746560781b60448201526064016104b4565b60016003828154811061056757610567612094565b9060005260206000209060030201600201600082825461058791906120c0565b9091555050336000818152600a60205260408120805460ff19166001908117909155600b805491820181559091527f0175b7a638427703f0dbe7bb9bbf987a2551717b34e79f33b5b1008d1fa01db90180546001600160a01b031916909117905550565b600660205260009081526040902080546001820154600283018054929360ff90921692610617906120d3565b80601f0160208091040260200160405190810160405280929190818152602001828054610643906120d3565b80156106905780601f1061066557610100808354040283529160200191610690565b820191906000526020600020905b81548152906001019060200180831161067357829003601f168201915b50505060038401546004850154600586015460079096015494956001600160a01b039092169490935060ff909116915087565b606080606060038054905067ffffffffffffffff8111156106e6576106e6611e72565b60405190808252806020026020018201604052801561071957816020015b60608152602001906001900390816107045790505b5060035490935067ffffffffffffffff81111561073857610738611e72565b60405190808252806020026020018201604052801561076b57816020015b60608152602001906001900390816107565790505b5060035490925067ffffffffffffffff81111561078a5761078a611e72565b6040519080825280602002602001820160405280156107b3578160200160208202803683370190505b50905060005b6003548110156109ab57600381815481106107d6576107d6612094565b906000526020600020906003020160000180546107f2906120d3565b80601f016020809104026020016040519081016040528092919081815260200182805461081e906120d3565b801561086b5780601f106108405761010080835404028352916020019161086b565b820191906000526020600020905b81548152906001019060200180831161084e57829003601f168201915b505050505084828151811061088257610882612094565b6020026020010181905250600381815481106108a0576108a0612094565b906000526020600020906003020160010180546108bc906120d3565b80601f01602080910402602001604051908101604052809291908181526020018280546108e8906120d3565b80156109355780601f1061090a57610100808354040283529160200191610935565b820191906000526020600020905b81548152906001019060200180831161091857829003601f168201915b505050505083828151811061094c5761094c612094565b60200260200101819052506003818154811061096a5761096a612094565b90600052602060002090600302016002015482828151811061098e5761098e612094565b6020908102919091010152806109a38161210d565b9150506107b9565b50909192565b60008281526006602081815260408084206001600160a01b0386168552909201905290205460ff165b92915050565b3360009081526001602052604090205460ff16610a0f5760405162461bcd60e51b81526004016104b490612126565b6003548110610a605760405162461bcd60e51b815260206004820152601760248201527f496e76616c69642063616e64696461746520696e64657800000000000000000060448201526064016104b4565b60038054610a709060019061214f565b81548110610a8057610a80612094565b906000526020600020906003020160038281548110610aa157610aa1612094565b6000918252602090912060039091020180610abc83826121b1565b50600181810190610acf908401826121b1565b506002918201549101556003805480610aea57610aea612292565b60008281526020812060001990920191600383020190610b0a8282611b7f565b610b18600183016000611b7f565b60028201600090555050905550565b3360009081526001602052604090205460ff16610b565760405162461bcd60e51b81526004016104b490612126565b60408051606081018252838152602081018390526000918101829052600380546001810182559281905281519192027fc2575a0e9e593c00f959f8c92f12db2869c3395a3b0502d05e2516446f71f85b01908190610bb490826122a8565b5060208201516001820190610bc990826122a8565b506040820151816002015550505050565b60038181548110610bea57600080fd5b9060005260206000209060030201600091509050806000018054610c0d906120d3565b80601f0160208091040260200160405190810160405280929190818152602001828054610c39906120d3565b8015610c865780601f10610c5b57610100808354040283529160200191610c86565b820191906000526020600020905b815481529060010190602001808311610c6957829003601f168201915b505050505090806001018054610c9b906120d3565b80601f0160208091040260200160405190810160405280929190818152602001828054610cc7906120d3565b8015610d145780601f10610ce957610100808354040283529160200191610d14565b820191906000526020600020905b815481529060010190602001808311610cf757829003601f168201915b5050505050908060020154905083565b60606002805480602002602001604051908101604052809291908181526020018280548015610d7c57602002820191906000526020600020905b81546001600160a01b03168152600190910190602001808311610d5e575b5050505050905090565b60078181548110610d9657600080fd5b600091825260209091200154905081565b600b8181548110610db757600080fd5b6000918252602090912001546001600160a01b0316905081565b6000546001600160a01b03163314610e235760405162461bcd60e51b81526020600482015260156024820152744f6e6c79206f776e65722063616e2075706461746560581b60448201526064016104b4565b600081118015610e3557506002548111155b610e815760405162461bcd60e51b815260206004820152601a60248201527f496e76616c696420636f6e6669726d6174696f6e20636f756e7400000000000060448201526064016104b4565b60048190556040518181527f9d1f3334630bd26a53d2e3c360b09c02204844312bb0fc411686ab17fb2c1d6a9060200160405180910390a150565b3360009081526001602052604090205460ff16610eeb5760405162461bcd60e51b81526004016104b490612126565b6000604051602001610f16906020808252600590820152641c995cd95d60da1b604082015260600190565b60405160208183030381529060405290506000610f3460028361145b565b9050610f3f8161157c565b5050565b60606007805480602002602001604051908101604052809291908181526020018280548015610d7c57602002820191906000526020600020905b815481526020019060010190808311610f7d575050505050905090565b6000546001600160a01b03163314610ff45760405162461bcd60e51b815260206004820152601c60248201527f4f6e6c79206f776e65722063616e20616464206f6666696369616c730000000060448201526064016104b4565b6001600160a01b03811660009081526001602052604090205460ff16156110535760405162461bcd60e51b8152602060048201526013602482015272105b1c9958591e48185b881bd9999a58da585b606a1b60448201526064016104b4565b6001600160a01b03811661109b5760405162461bcd60e51b815260206004820152600f60248201526e496e76616c6964206164647265737360881b60448201526064016104b4565b6001600160a01b0381166000818152600160208190526040808320805460ff19168317905560028054928301815583527f405787fa12a823e0f2b7631cc41b3ba8828b3321ca811111fa75cd3aa3bb5ace90910180546001600160a01b03191684179055517fcd902338c077954bb88183435a933f4d31a1251a6bc80aa0b0e6027111d6e8e89190a250565b3360009081526001602052604090205460ff166111565760405162461bcd60e51b81526004016104b490612126565b8082106111955760405162461bcd60e51b815260206004820152600d60248201526c496e76616c696420646174657360981b60448201526064016104b4565b6040805160208101849052808201839052815180820383018152606090910190915260006111c460018361145b565b90506111cf8161157c565b50505050565b60008060008060008060055487106112295760405162461bcd60e51b8152602060048201526017602482015276141c9bdc1bdcd85b08191bd95cc81b9bdd08195e1a5cdd604a1b60448201526064016104b4565b505050600093845250506006602052506040902080546001820154600383015460048401546005850154600790950154939560ff938416956001600160a01b0390931694919390921691565b3360009081526001602052604090205460ff166112a45760405162461bcd60e51b81526004016104b490612126565b6112b060036000611bb9565b60005b600b5481101561131c576000600a6000600b84815481106112d6576112d6612094565b6000918252602080832091909101546001600160a01b031683528201929092526040019020805460ff1916911515919091179055806113148161210d565b9150506112b3565b50611329600b6000611bda565b60006008819055600955565b3360009081526001602052604090205460ff166113645760405162461bcd60e51b81526004016104b490612126565b60008282604051602001611379929190612362565b604051602081830303815290604052905060006111c460008361145b565b3360009081526001602052604090205460ff166113c65760405162461bcd60e51b81526004016104b490612126565b8082106114055760405162461bcd60e51b815260206004820152600d60248201526c496e76616c696420646174657360981b60448201526064016104b4565b600891909155600955565b60028181548110610db757600080fd5b3360009081526001602052604090205460ff1661144f5760405162461bcd60e51b81526004016104b490612126565b6114588161157c565b50565b600580546000918291908261146f8361210d565b909155506000818152600660205260409020818155600190810180549293508692909160ff19909116908360048111156114ab576114ab611c58565b021790555060008181526006602052604090206002016114cb84826122a8565b506000818152600660205260408082206003810180546001600160a01b031916339081179091556004820184905560058201805460ff19169055426007928301558154600181018355919093527fa66cc928b5edb82af9bd49922954155ab7b0942694bea4ce44661d9a8736c688018390555182907f3263432a41f78a4701cc9465f62411ed717ade32290c084135a3dd6b29f4bf289061156d908890612390565b60405180910390a39392505050565b60055481106115c75760405162461bcd60e51b8152602060048201526017602482015276141c9bdc1bdcd85b08191bd95cc81b9bdd08195e1a5cdd604a1b60448201526064016104b4565b60008181526006602052604090206005015460ff16156116295760405162461bcd60e51b815260206004820152601960248201527f50726f706f73616c20616c72656164792065786563757465640000000000000060448201526064016104b4565b6000818152600660208181526040808420338552909201905290205460ff16156116895760405162461bcd60e51b8152602060048201526011602482015270105b1c9958591e4818dbdb999a5c9b5959607a1b60448201526064016104b4565b60008181526006602081815260408084203385528084018352908420805460ff19166001908117909155858552929091526004018054919290916116ce9084906120c0565b9091555050604051339082907ffde7b8a92c767d46da889d2526f0fa0dd074cc73fb01212122ad9368d18390a490600090a36004805460008381526006602052604090209091015410611458576114588160008181526006602052604090206005015460ff16156117745760405162461bcd60e51b815260206004820152601060248201526f105b1c9958591e48195e1958dd5d195960821b60448201526064016104b4565b600081815260066020526040812060058101805460ff19166001908117909155015460ff1660048111156117aa576117aa611c58565b036118ec57600081815260066020526040812060020180548291906117ce906120d3565b80601f01602080910402602001604051908101604052809291908181526020018280546117fa906120d3565b80156118475780601f1061181c57610100808354040283529160200191611847565b820191906000526020600020905b81548152906001019060200180831161182a57829003601f168201915b505050505080602001905181019061185f91906123eb565b60408051606081018252838152602081018390526000918101829052600380546001810182559281905281519496509294509291027fc2575a0e9e593c00f959f8c92f12db2869c3395a3b0502d05e2516446f71f85b019081906118c390826122a8565b50602082015160018201906118d890826122a8565b506040820151816002015550505050611a97565b600160008281526006602052604090206001015460ff16600481111561191457611914611c58565b036119da5760008181526006602052604081206002018054829190611938906120d3565b80601f0160208091040260200160405190810160405280929190818152602001828054611964906120d3565b80156119b15780601f10611986576101008083540402835291602001916119b1565b820191906000526020600020905b81548152906001019060200180831161199457829003601f168201915b50505050508060200190518101906119c99190612445565b60089190915560095550611a979050565b600260008281526006602052604090206001015460ff166004811115611a0257611a02611c58565b03611a9757611a1360036000611bb9565b60005b600b54811015611a7f576000600a6000600b8481548110611a3957611a39612094565b6000918252602080832091909101546001600160a01b031683528201929092526040019020805460ff191691151591909117905580611a778161210d565b915050611a16565b50611a8c600b6000611bda565b600060088190556009555b60005b600754811015611b50578160078281548110611ab857611ab8612094565b906000526020600020015403611b3e5760078054611ad89060019061214f565b81548110611ae857611ae8612094565b906000526020600020015460078281548110611b0657611b06612094565b6000918252602090912001556007805480611b2357611b23612292565b60019003818190600052602060002001600090559055611b50565b80611b488161210d565b915050611a9a565b5060405181907f712ae1383f79ac853f8d882153778e0260ef8f03b504e2866e0593e04d2b291f90600090a250565b508054611b8b906120d3565b6000825580601f10611b9b575050565b601f0160209004906000526020600020908101906114589190611bf4565b50805460008255600302906000526020600020908101906114589190611c0d565b508054600082559060005260206000209081019061145891905b5b80821115611c095760008155600101611bf5565b5090565b80821115611c09576000611c218282611b7f565b611c2f600183016000611b7f565b5060006002820155600301611c0d565b600060208284031215611c5157600080fd5b5035919050565b634e487b7160e01b600052602160045260246000fd5b60058110611c8c57634e487b7160e01b600052602160045260246000fd5b9052565b60005b83811015611cab578181015183820152602001611c93565b50506000910152565b60008151808452611ccc816020860160208601611c90565b601f01601f19169290920160200192915050565b878152611cf06020820188611c6e565b60e060408201526000611d0660e0830188611cb4565b6001600160a01b0396909616606083015250608081019390935290151560a083015260c0909101529392505050565b600081518084526020808501808196508360051b8101915082860160005b85811015611d7d578284038952611d6b848351611cb4565b98850198935090840190600101611d53565b5091979650505050505050565b600081518084526020808501945080840160005b83811015611dba57815187529582019590820190600101611d9e565b509495945050505050565b606081526000611dd86060830186611d35565b8281036020840152611dea8186611d35565b90508281036040840152611dfe8185611d8a565b9695505050505050565b80356001600160a01b0381168114611e1f57600080fd5b919050565b60008060408385031215611e3757600080fd5b82359150611e4760208401611e08565b90509250929050565b600060208284031215611e6257600080fd5b611e6b82611e08565b9392505050565b634e487b7160e01b600052604160045260246000fd5b604051601f8201601f1916810167ffffffffffffffff81118282101715611eb157611eb1611e72565b604052919050565b600067ffffffffffffffff821115611ed357611ed3611e72565b50601f01601f191660200190565b600082601f830112611ef257600080fd5b8135611f05611f0082611eb9565b611e88565b818152846020838601011115611f1a57600080fd5b816020850160208301376000918101602001919091529392505050565b60008060408385031215611f4a57600080fd5b823567ffffffffffffffff80821115611f6257600080fd5b611f6e86838701611ee1565b93506020850135915080821115611f8457600080fd5b50611f9185828601611ee1565b9150509250929050565b606081526000611fae6060830186611cb4565b8281036020840152611fc08186611cb4565b915050826040830152949350505050565b6020808252825182820181905260009190848201906040850190845b818110156120125783516001600160a01b031683529284019291840191600101611fed565b50909695505050505050565b602081526000611e6b6020830184611d8a565b6000806040838503121561204457600080fd5b50508035926020909101359150565b86815260c081016120676020830188611c6e565b6001600160a01b039590951660408201526060810193909352901515608083015260a09091015292915050565b634e487b7160e01b600052603260045260246000fd5b634e487b7160e01b600052601160045260246000fd5b808201808211156109da576109da6120aa565b600181811c908216806120e757607f821691505b60208210810361210757634e487b7160e01b600052602260045260246000fd5b50919050565b60006001820161211f5761211f6120aa565b5060010190565b6020808252600f908201526e139bdd08185b881bd9999a58da585b608a1b604082015260600190565b818103818111156109da576109da6120aa565b601f8211156121ac57600081815260208120601f850160051c810160208610156121895750805b601f850160051c820191505b818110156121a857828155600101612195565b5050505b505050565b8181036121bc575050565b6121c682546120d3565b67ffffffffffffffff8111156121de576121de611e72565b6121f2816121ec84546120d3565b84612162565b6000601f821160018114612226576000831561220e5750848201545b600019600385901b1c1916600184901b17845561228b565b600085815260209020601f19841690600086815260209020845b838110156122605782860154825560019586019590910190602001612240565b508583101561227e5781850154600019600388901b60f8161c191681555b50505060018360011b0184555b5050505050565b634e487b7160e01b600052603160045260246000fd5b815167ffffffffffffffff8111156122c2576122c2611e72565b6122d0816121ec84546120d3565b602080601f83116001811461230557600084156122ed5750858301515b600019600386901b1c1916600185901b1785556121a8565b600085815260208120601f198616915b8281101561233457888601518255948401946001909101908401612315565b50858210156123525787850151600019600388901b60f8161c191681555b5050505050600190811b01905550565b6040815260006123756040830185611cb4565b82810360208401526123878185611cb4565b95945050505050565b602081016109da8284611c6e565b600082601f8301126123af57600080fd5b81516123bd611f0082611eb9565b8181528460208386010111156123d257600080fd5b6123e3826020830160208701611c90565b949350505050565b600080604083850312156123fe57600080fd5b825167ffffffffffffffff8082111561241657600080fd5b6124228683870161239e565b9350602085015191508082111561243857600080fd5b50611f918582860161239e565b6000806040838503121561245857600080fd5b50508051602090910151909290915056fea264697066735822122015b2717ac43a8159937e4e95c1507dacd75ce784a9cb51f57fd296bb1e2df77564736f6c63430008130033",
  "immutableReferences": {},
  "source": "// SPDX-License-Identifier: MIT\r\npragma solidity ^0.8.0;\r\n\r\ncontract VotingSys {\r\n    struct Candidate {\r\n        string name;\r\n        string party;\r\n        uint votes;\r\n    }\r\n    \r\n    struct Proposal {\r\n        uint id;\r\n        ProposalType proposalType;\r\n        bytes data;\r\n        address proposer;\r\n        uint confirmations;\r\n        bool executed;\r\n        mapping(address => bool) confirmed;\r\n        uint timestamp;\r\n    }\r\n    \r\n    enum ProposalType {\r\n        ADD_CANDIDATE,\r\n        SET_ELECTION_DATES,\r\n        RESET_ELECTION,\r\n        ADD_OFFICIAL,\r\n        REMOVE_OFFICIAL\r\n    }\r\n\r\n    address public owner;\r\n    mapping(address => bool) public officials;\r\n    address[] public officialsList;\r\n    Candidate[] public candidates;\r\n    \r\n    // Multi-signature functionality\r\n    uint public requiredConfirmations;\r\n    uint public proposalCount;\r\n    mapping(uint => Proposal) public proposals;\r\n    uint[] public pendingProposals;\r\n\r\n    uint public startDate;\r\n    uint public endDate;\r\n\r\n    mapping(address => bool) public hasVoted;\r\n    address[] public votersList; // Track all voters for reset functionality\r\n\r\n    constructor() {\r\n        owner = msg.sender;\r\n        officials[msg.sender] = true;\r\n        officialsList.push(msg.sender);\r\n        requiredConfirmations = 1; // Start with 1, can be updated\r\n    }\r\n    \r\n    // Events for multi-signature operations\r\n    event ProposalCreated(uint indexed proposalId, ProposalType proposalType, address indexed proposer);\r\n    event ProposalConfirmed(uint indexed proposalId, address indexed official);\r\n    event ProposalExecuted(uint indexed proposalId);\r\n    event OfficialAdded(address indexed official);\r\n    event OfficialRemoved(address indexed official);\r\n    event RequiredConfirmationsChanged(uint newRequiredConfirmations);\r\n\r\n    modifier onlyOfficial() {\r\n        require(officials[msg.sender], \"Not an official\");\r\n        _;\r\n    }\r\n\r\n    modifier electionActive() {\r\n        require(\r\n            block.timestamp >= startDate && block.timestamp <= endDate,\r\n            \"Election not active\"\r\n        );\r\n        _;\r\n    }\r\n\r\n    function registerCandidate(\r\n        string memory _name,\r\n        string memory _party\r\n    ) external onlyOfficial {\r\n        candidates.push(Candidate(_name, _party, 0));\r\n    }\r\n\r\n    function setElectionDates(uint _start, uint _end) external onlyOfficial {\r\n        require(_start < _end, \"Invalid dates\");\r\n        startDate = _start;\r\n        endDate = _end;\r\n    }\r\n\r\n    function vote(uint _candidateIndex) external electionActive {\r\n        require(!hasVoted[msg.sender], \"Already voted\");\r\n        require(_candidateIndex < candidates.length, \"Invalid candidate\");\r\n\r\n        candidates[_candidateIndex].votes += 1;\r\n        hasVoted[msg.sender] = true;\r\n\r\n        // Track voter for reset functionality\r\n        votersList.push(msg.sender);\r\n    }\r\n\r\n    // New function: Reset election - clears all candidates, votes, and voting records\r\n    function resetElection() external onlyOfficial {\r\n        // Clear all candidates\r\n        delete candidates;\r\n\r\n        // Reset all voters' voting status\r\n        for (uint i = 0; i < votersList.length; i++) {\r\n            hasVoted[votersList[i]] = false;\r\n        }\r\n\r\n        // Clear voters list\r\n        delete votersList;\r\n\r\n        // Reset election dates\r\n        startDate = 0;\r\n        endDate = 0;\r\n    }\r\n\r\n    // New function: Remove specific candidate (alternative to full reset)\r\n    function removeCandidate(uint _candidateIndex) external onlyOfficial {\r\n        require(_candidateIndex < candidates.length, \"Invalid candidate index\");\r\n\r\n        // Move the last candidate to the deleted position\r\n        candidates[_candidateIndex] = candidates[candidates.length - 1];\r\n\r\n        // Remove the last candidate\r\n        candidates.pop();\r\n    }\r\n\r\n    // Return separate arrays to avoid Web3 decoding errors\r\n    function getCandidates()\r\n        external\r\n        view\r\n        returns (\r\n            string[] memory names,\r\n            string[] memory parties,\r\n            uint[] memory votes\r\n        )\r\n    {\r\n        names = new string[](candidates.length);\r\n        parties = new string[](candidates.length);\r\n        votes = new uint[](candidates.length);\r\n\r\n        for (uint i = 0; i < candidates.length; i++) {\r\n            names[i] = candidates[i].name;\r\n            parties[i] = candidates[i].party;\r\n            votes[i] = candidates[i].votes;\r\n        }\r\n    }\r\n\r\n    // Get total number of candidates\r\n    function getCandidateCount() external view returns (uint) {\r\n        return candidates.length;\r\n    }\r\n\r\n    // Get total number of votes cast\r\n    function getTotalVotes() external view returns (uint) {\r\n        return votersList.length;\r\n    }\r\n    \r\n    // ============ MULTI-SIGNATURE FUNCTIONS ============\r\n    \r\n    // Update required confirmations (only by owner)\r\n    function updateRequiredConfirmations(uint _required) external {\r\n        require(msg.sender == owner, \"Only owner can update\");\r\n        require(_required > 0 && _required <= officialsList.length, \"Invalid confirmation count\");\r\n        requiredConfirmations = _required;\r\n        emit RequiredConfirmationsChanged(_required);\r\n    }\r\n    \r\n    // Add new official\r\n    function addOfficial(address _official) external {\r\n        require(msg.sender == owner, \"Only owner can add officials\");\r\n        require(!officials[_official], \"Already an official\");\r\n        require(_official != address(0), \"Invalid address\");\r\n        \r\n        officials[_official] = true;\r\n        officialsList.push(_official);\r\n        emit OfficialAdded(_official);\r\n    }\r\n    \r\n    // Propose to add candidate (multi-sig version)\r\n    function proposeAddCandidate(string memory _name, string memory _party) external onlyOfficial {\r\n        bytes memory data = abi.encode(_name, _party);\r\n        uint proposalId = _createProposal(ProposalType.ADD_CANDIDATE, data);\r\n        \r\n        // Auto-confirm own proposal\r\n        _confirmProposal(proposalId);\r\n    }\r\n    \r\n    // Propose to set election dates (multi-sig version)\r\n    function proposeSetElectionDates(uint _start, uint _end) external onlyOfficial {\r\n        require(_start < _end, \"Invalid dates\");\r\n        bytes memory data = abi.encode(_start, _end);\r\n        uint proposalId = _createProposal(ProposalType.SET_ELECTION_DATES, data);\r\n        \r\n        // Auto-confirm own proposal\r\n        _confirmProposal(proposalId);\r\n    }\r\n    \r\n    // Propose to reset election (multi-sig version)\r\n    function proposeResetElection() external onlyOfficial {\r\n        bytes memory data = abi.encode(\"reset\");\r\n        uint proposalId = _createProposal(ProposalType.RESET_ELECTION, data);\r\n        \r\n        // Auto-confirm own proposal\r\n        _confirmProposal(proposalId);\r\n    }\r\n    \r\n    // Confirm a proposal\r\n    function confirmProposal(uint _proposalId) external onlyOfficial {\r\n        _confirmProposal(_proposalId);\r\n    }\r\n    \r\n    // Internal function to create proposal\r\n    function _createProposal(ProposalType _type, bytes memory _data) internal returns (uint) {\r\n        uint proposalId = proposalCount++;\r\n        \r\n        proposals[proposalId].id = proposalId;\r\n        proposals[proposalId].proposalType = _type;\r\n        proposals[proposalId].data = _data;\r\n        proposals[proposalId].proposer = msg.sender;\r\n        proposals[proposalId].confirmations = 0;\r\n        proposals[proposalId].executed = false;\r\n        proposals[proposalId].timestamp = block.timestamp;\r\n        \r\n        pendingProposals.push(proposalId);\r\n        \r\n        emit ProposalCreated(proposalId, _type, msg.sender);\r\n        return proposalId;\r\n    }\r\n    \r\n    // Internal function to confirm proposal\r\n    function _confirmProposal(uint _proposalId) internal {\r\n        require(_proposalId < proposalCount, \"Proposal does not exist\");\r\n        require(!proposals[_proposalId].executed, \"Proposal already executed\");\r\n        require(!proposals[_proposalId].confirmed[msg.sender], \"Already confirmed\");\r\n        \r\n        proposals[_proposalId].confirmed[msg.sender] = true;\r\n        proposals[_proposalId].confirmations += 1;\r\n        \r\n        emit ProposalConfirmed(_proposalId, msg.sender);\r\n        \r\n        // Execute if enough confirmations\r\n        if (proposals[_proposalId].confirmations >= requiredConfirmations) {\r\n            _executeProposal(_proposalId);\r\n        }\r\n    }\r\n    \r\n    // Execute proposal\r\n    function _executeProposal(uint _proposalId) internal {\r\n        require(!proposals[_proposalId].executed, \"Already executed\");\r\n        \r\n        proposals[_proposalId].executed = true;\r\n        \r\n        if (proposals[_proposalId].proposalType == ProposalType.ADD_CANDIDATE) {\r\n            (string memory name, string memory party) = abi.decode(proposals[_proposalId].data, (string, string));\r\n            candidates.push(Candidate(name, party, 0));\r\n            \r\n        } else if (proposals[_proposalId].proposalType == ProposalType.SET_ELECTION_DATES) {\r\n            (uint start, uint end) = abi.decode(proposals[_proposalId].data, (uint, uint));\r\n            startDate = start;\r\n            endDate = end;\r\n            \r\n        } else if (proposals[_proposalId].proposalType == ProposalType.RESET_ELECTION) {\r\n            // Clear all candidates\r\n            delete candidates;\r\n            \r\n            // Reset all voters' voting status\r\n            for (uint i = 0; i < votersList.length; i++) {\r\n                hasVoted[votersList[i]] = false;\r\n            }\r\n            \r\n            // Clear voters list\r\n            delete votersList;\r\n            \r\n            // Reset election dates\r\n            startDate = 0;\r\n            endDate = 0;\r\n        }\r\n        \r\n        // Remove from pending proposals\r\n        for (uint i = 0; i < pendingProposals.length; i++) {\r\n            if (pendingProposals[i] == _proposalId) {\r\n                pendingProposals[i] = pendingProposals[pendingProposals.length - 1];\r\n                pendingProposals.pop();\r\n                break;\r\n            }\r\n        }\r\n        \r\n        emit ProposalExecuted(_proposalId);\r\n    }\r\n    \r\n    // Get proposal details\r\n    function getProposal(uint _proposalId) external view returns (\r\n        uint id,\r\n        ProposalType proposalType,\r\n        address proposer,\r\n        uint confirmations,\r\n        bool executed,\r\n        uint timestamp\r\n    ) {\r\n        require(_proposalId < proposalCount, \"Proposal does not exist\");\r\n        \r\n        Proposal storage proposal = proposals[_proposalId];\r\n        return (\r\n            proposal.id,\r\n            proposal.proposalType,\r\n            proposal.proposer,\r\n            proposal.confirmations,\r\n            proposal.executed,\r\n            proposal.timestamp\r\n        );\r\n    }\r\n    \r\n    // Get pending proposals\r\n    function getPendingProposals() external view returns (uint[] memory) {\r\n        return pendingProposals;\r\n    }\r\n    \r\n    // Get officials list\r\n    function getOfficials() external view returns (address[] memory) {\r\n        return officialsList;\r\n    }\r\n    \r\n    // Check if address has confirmed a proposal\r\n    function hasConfirmed(uint _proposalId, address _official) external view returns (bool) {\r\n        return proposals[_proposalId].confirmed[_official];\r\n    }\r\n}",
  "sourcePath": "C:\\Users\\HP\\Desktop\\BLOCKELECT-Blockchain-Based-Secure-Voting-System\\contracts\\VotingSys.sol",
  "compiler": {
    "name": "solc",
    "version": "0.8.19+commit.7dd6d404.Emscripten.clang"
  },
  "schemaVersion": "3.4.16",
  "updatedAt": "2025-09-08T02:18:47.465Z",
  "networkType": "ethereum",
  "devdoc": {
    "kind": "dev",
    "methods": {},
    "version": 1
  },
  "userdoc": {
    "kind": "user",
    "methods": {},
    "version": 1
  }
}