{
  "contractName": "VotingSys",
  "abi": [
    {
      "inputs": [],
      "stateMutability": "nonpayable",
      "type": "constructor"
    },
    {
      "anonymous": false,
      "inputs": [
        {
          "indexed": true,
          "internalType": "address",
          "name": "official",
          "type": "address"
        }
      ],
      "name": "OfficialAdded",
      "type": "event"
    },
    {
      "anonymous": false,
      "inputs": [
        {
          "indexed": true,
          "internalType": "address",
          "name": "official",
          "type": "address"
        }
      ],
      "name": "OfficialRemoved",
      "type": "event"
    },
    {
      "anonymous": false,
      "inputs": [
        {
          "indexed": true,
          "internalType": "uint256",
          "name": "proposalId",
          "type": "uint256"
        },
        {
          "indexed": true,
          "internalType": "address",
          "name": "official",
          "type": "address"
        }
      ],
      "name": "ProposalConfirmed",
      "type": "event"
    },
    {
      "anonymous": false,
      "inputs": [
        {
          "indexed": true,
          "internalType": "uint256",
          "name": "proposalId",
          "type": "uint256"
        },
        {
          "indexed": false,
          "internalType": "enum VotingSys.ProposalType",
          "name": "proposalType",
          "type": "uint8"
        },
        {
          "indexed": true,
          "internalType": "address",
          "name": "proposer",
          "type": "address"
        }
      ],
      "name": "ProposalCreated",
      "type": "event"
    },
    {
      "anonymous": false,
      "inputs": [
        {
          "indexed": true,
          "internalType": "uint256",
          "name": "proposalId",
          "type": "uint256"
        }
      ],
      "name": "ProposalExecuted",
      "type": "event"
    },
    {
      "anonymous": false,
      "inputs": [
        {
          "indexed": false,
          "internalType": "uint256",
          "name": "newRequiredConfirmations",
          "type": "uint256"
        }
      ],
      "name": "RequiredConfirmationsChanged",
      "type": "event"
    },
    {
      "anonymous": false,
      "inputs": [
        {
          "indexed": true,
          "internalType": "address",
          "name": "voter",
          "type": "address"
        },
        {
          "indexed": false,
          "internalType": "string",
          "name": "ninHash",
          "type": "string"
        }
      ],
      "name": "VoterNINVerified",
      "type": "event"
    },
    {
      "inputs": [
        {
          "internalType": "uint256",
          "name": "",
          "type": "uint256"
        }
      ],
      "name": "candidates",
      "outputs": [
        {
          "internalType": "string",
          "name": "name",
          "type": "string"
        },
        {
          "internalType": "string",
          "name": "party",
          "type": "string"
        },
        {
          "internalType": "uint256",
          "name": "votes",
          "type": "uint256"
        }
      ],
      "stateMutability": "view",
      "type": "function",
      "constant": true
    },
    {
      "inputs": [],
      "name": "endDate",
      "outputs": [
        {
          "internalType": "uint256",
          "name": "",
          "type": "uint256"
        }
      ],
      "stateMutability": "view",
      "type": "function",
      "constant": true
    },
    {
      "inputs": [
        {
          "internalType": "address",
          "name": "",
          "type": "address"
        }
      ],
      "name": "hasVoted",
      "outputs": [
        {
          "internalType": "bool",
          "name": "",
          "type": "bool"
        }
      ],
      "stateMutability": "view",
      "type": "function",
      "constant": true
    },
    {
      "inputs": [
        {
          "internalType": "address",
          "name": "",
          "type": "address"
        }
      ],
      "name": "ninVerified",
      "outputs": [
        {
          "internalType": "bool",
          "name": "",
          "type": "bool"
        }
      ],
      "stateMutability": "view",
      "type": "function",
      "constant": true
    },
    {
      "inputs": [
        {
          "internalType": "address",
          "name": "",
          "type": "address"
        }
      ],
      "name": "officials",
      "outputs": [
        {
          "internalType": "bool",
          "name": "",
          "type": "bool"
        }
      ],
      "stateMutability": "view",
      "type": "function",
      "constant": true
    },
    {
      "inputs": [
        {
          "internalType": "uint256",
          "name": "",
          "type": "uint256"
        }
      ],
      "name": "officialsList",
      "outputs": [
        {
          "internalType": "address",
          "name": "",
          "type": "address"
        }
      ],
      "stateMutability": "view",
      "type": "function",
      "constant": true
    },
    {
      "inputs": [],
      "name": "owner",
      "outputs": [
        {
          "internalType": "address",
          "name": "",
          "type": "address"
        }
      ],
      "stateMutability": "view",
      "type": "function",
      "constant": true
    },
    {
      "inputs": [
        {
          "internalType": "uint256",
          "name": "",
          "type": "uint256"
        }
      ],
      "name": "pendingProposals",
      "outputs": [
        {
          "internalType": "uint256",
          "name": "",
          "type": "uint256"
        }
      ],
      "stateMutability": "view",
      "type": "function",
      "constant": true
    },
    {
      "inputs": [],
      "name": "proposalCount",
      "outputs": [
        {
          "internalType": "uint256",
          "name": "",
          "type": "uint256"
        }
      ],
      "stateMutability": "view",
      "type": "function",
      "constant": true
    },
    {
      "inputs": [
        {
          "internalType": "uint256",
          "name": "",
          "type": "uint256"
        }
      ],
      "name": "proposals",
      "outputs": [
        {
          "internalType": "uint256",
          "name": "id",
          "type": "uint256"
        },
        {
          "internalType": "enum VotingSys.ProposalType",
          "name": "proposalType",
          "type": "uint8"
        },
        {
          "internalType": "bytes",
          "name": "data",
          "type": "bytes"
        },
        {
          "internalType": "address",
          "name": "proposer",
          "type": "address"
        },
        {
          "internalType": "uint256",
          "name": "confirmations",
          "type": "uint256"
        },
        {
          "internalType": "bool",
          "name": "executed",
          "type": "bool"
        },
        {
          "internalType": "uint256",
          "name": "timestamp",
          "type": "uint256"
        }
      ],
      "stateMutability": "view",
      "type": "function",
      "constant": true
    },
    {
      "inputs": [],
      "name": "requiredConfirmations",
      "outputs": [
        {
          "internalType": "uint256",
          "name": "",
          "type": "uint256"
        }
      ],
      "stateMutability": "view",
      "type": "function",
      "constant": true
    },
    {
      "inputs": [],
      "name": "startDate",
      "outputs": [
        {
          "internalType": "uint256",
          "name": "",
          "type": "uint256"
        }
      ],
      "stateMutability": "view",
      "type": "function",
      "constant": true
    },
    {
      "inputs": [
        {
          "internalType": "address",
          "name": "",
          "type": "address"
        }
      ],
      "name": "voterNIN",
      "outputs": [
        {
          "internalType": "string",
          "name": "",
          "type": "string"
        }
      ],
      "stateMutability": "view",
      "type": "function",
      "constant": true
    },
    {
      "inputs": [
        {
          "internalType": "uint256",
          "name": "",
          "type": "uint256"
        }
      ],
      "name": "votersList",
      "outputs": [
        {
          "internalType": "address",
          "name": "",
          "type": "address"
        }
      ],
      "stateMutability": "view",
      "type": "function",
      "constant": true
    },
    {
      "inputs": [
        {
          "internalType": "string",
          "name": "_name",
          "type": "string"
        },
        {
          "internalType": "string",
          "name": "_party",
          "type": "string"
        }
      ],
      "name": "registerCandidate",
      "outputs": [],
      "stateMutability": "nonpayable",
      "type": "function"
    },
    {
      "inputs": [
        {
          "internalType": "uint256",
          "name": "_start",
          "type": "uint256"
        },
        {
          "internalType": "uint256",
          "name": "_end",
          "type": "uint256"
        }
      ],
      "name": "setElectionDates",
      "outputs": [],
      "stateMutability": "nonpayable",
      "type": "function"
    },
    {
      "inputs": [
        {
          "internalType": "address",
          "name": "_voter",
          "type": "address"
        },
        {
          "internalType": "string",
          "name": "_ninHash",
          "type": "string"
        }
      ],
      "name": "verifyVoterNIN",
      "outputs": [],
      "stateMutability": "nonpayable",
      "type": "function"
    },
    {
      "inputs": [
        {
          "internalType": "uint256",
          "name": "_candidateIndex",
          "type": "uint256"
        }
      ],
      "name": "vote",
      "outputs": [],
      "stateMutability": "nonpayable",
      "type": "function"
    },
    {
      "inputs": [],
      "name": "resetElection",
      "outputs": [],
      "stateMutability": "nonpayable",
      "type": "function"
    },
    {
      "inputs": [
        {
          "internalType": "uint256",
          "name": "_candidateIndex",
          "type": "uint256"
        }
      ],
      "name": "removeCandidate",
      "outputs": [],
      "stateMutability": "nonpayable",
      "type": "function"
    },
    {
      "inputs": [],
      "name": "getCandidates",
      "outputs": [
        {
          "internalType": "string[]",
          "name": "names",
          "type": "string[]"
        },
        {
          "internalType": "string[]",
          "name": "parties",
          "type": "string[]"
        },
        {
          "internalType": "uint256[]",
          "name": "votes",
          "type": "uint256[]"
        }
      ],
      "stateMutability": "view",
      "type": "function",
      "constant": true
    },
    {
      "inputs": [],
      "name": "getCandidateCount",
      "outputs": [
        {
          "internalType": "uint256",
          "name": "",
          "type": "uint256"
        }
      ],
      "stateMutability": "view",
      "type": "function",
      "constant": true
    },
    {
      "inputs": [],
      "name": "getTotalVotes",
      "outputs": [
        {
          "internalType": "uint256",
          "name": "",
          "type": "uint256"
        }
      ],
      "stateMutability": "view",
      "type": "function",
      "constant": true
    },
    {
      "inputs": [
        {
          "internalType": "address",
          "name": "_voter",
          "type": "address"
        }
      ],
      "name": "isNINVerified",
      "outputs": [
        {
          "internalType": "bool",
          "name": "",
          "type": "bool"
        }
      ],
      "stateMutability": "view",
      "type": "function",
      "constant": true
    },
    {
      "inputs": [
        {
          "internalType": "address",
          "name": "_voter",
          "type": "address"
        }
      ],
      "name": "getVoterNINHash",
      "outputs": [
        {
          "internalType": "string",
          "name": "",
          "type": "string"
        }
      ],
      "stateMutability": "view",
      "type": "function",
      "constant": true
    },
    {
      "inputs": [
        {
          "internalType": "uint256",
          "name": "_required",
          "type": "uint256"
        }
      ],
      "name": "updateRequiredConfirmations",
      "outputs": [],
      "stateMutability": "nonpayable",
      "type": "function"
    },
    {
      "inputs": [
        {
          "internalType": "address",
          "name": "_official",
          "type": "address"
        }
      ],
      "name": "addOfficial",
      "outputs": [],
      "stateMutability": "nonpayable",
      "type": "function"
    },
    {
      "inputs": [
        {
          "internalType": "string",
          "name": "_name",
          "type": "string"
        },
        {
          "internalType": "string",
          "name": "_party",
          "type": "string"
        }
      ],
      "name": "proposeAddCandidate",
      "outputs": [],
      "stateMutability": "nonpayable",
      "type": "function"
    },
    {
      "inputs": [
        {
          "internalType": "uint256",
          "name": "_start",
          "type": "uint256"
        },
        {
          "internalType": "uint256",
          "name": "_end",
          "type": "uint256"
        }
      ],
      "name": "proposeSetElectionDates",
      "outputs": [],
      "stateMutability": "nonpayable",
      "type": "function"
    },
    {
      "inputs": [],
      "name": "proposeResetElection",
      "outputs": [],
      "stateMutability": "nonpayable",
      "type": "function"
    },
    {
      "inputs": [
        {
          "internalType": "uint256",
          "name": "_proposalId",
          "type": "uint256"
        }
      ],
      "name": "confirmProposal",
      "outputs": [],
      "stateMutability": "nonpayable",
      "type": "function"
    },
    {
      "inputs": [
        {
          "internalType": "uint256",
          "name": "_proposalId",
          "type": "uint256"
        }
      ],
      "name": "getProposal",
      "outputs": [
        {
          "internalType": "uint256",
          "name": "id",
          "type": "uint256"
        },
        {
          "internalType": "enum VotingSys.ProposalType",
          "name": "proposalType",
          "type": "uint8"
        },
        {
          "internalType": "address",
          "name": "proposer",
          "type": "address"
        },
        {
          "internalType": "uint256",
          "name": "confirmations",
          "type": "uint256"
        },
        {
          "internalType": "bool",
          "name": "executed",
          "type": "bool"
        },
        {
          "internalType": "uint256",
          "name": "timestamp",
          "type": "uint256"
        }
      ],
      "stateMutability": "view",
      "type": "function",
      "constant": true
    },
    {
      "inputs": [],
      "name": "getPendingProposals",
      "outputs": [
        {
          "internalType": "uint256[]",
          "name": "",
          "type": "uint256[]"
        }
      ],
      "stateMutability": "view",
      "type": "function",
      "constant": true
    },
    {
      "inputs": [],
      "name": "getOfficials",
      "outputs": [
        {
          "internalType": "address[]",
          "name": "",
          "type": "address[]"
        }
      ],
      "stateMutability": "view",
      "type": "function",
      "constant": true
    },
    {
      "inputs": [
        {
          "internalType": "uint256",
          "name": "_proposalId",
          "type": "uint256"
        },
        {
          "internalType": "address",
          "name": "_official",
          "type": "address"
        }
      ],
      "name": "hasConfirmed",
      "outputs": [
        {
          "internalType": "bool",
          "name": "",
          "type": "bool"
        }
      ],
      "stateMutability": "view",
      "type": "function",
      "constant": true
    }
  ],
  "bytecode": "0x608060405234801561001057600080fd5b50600080546001600160a01b03199081163390811783558083526001602081905260408420805460ff19168217905560028054808301825594527f405787fa12a823e0f2b7631cc41b3ba8828b3321ca811111fa75cd3aa3bb5ace9093018054909216179055600455612a62806100886000396000f3fe608060405234801561001057600080fd5b50600436106102115760003560e01c806382e717f711610125578063c24a0f8b116100ad578063e8f305231161007c578063e8f30523146104da578063eb24aa48146104e2578063f2c40508146104f5578063f3563dad14610508578063f4a4f4d21461051b57600080fd5b8063c24a0f8b14610480578063c7f758a814610489578063d93321ef146104ae578063da35c664146104d157600080fd5b80639a0e7d66116100f45780639a0e7d6614610435578063a0edb24a1461043d578063a80db6fc14610445578063ac840db01461045a578063c1da0cc41461046d57600080fd5b806382e717f7146103ca5780638da5cb5b146103d35780639000f158146103e657806392a2c1211461040957600080fd5b80631718226d116101a857806358bc73311161017757806358bc73311461035157806366c43e10146103665780636a61cf611461037957806372ce73ab1461038c57806381b2db50146103b757600080fd5b80631718226d146102f457806330a56347146103145780633477ee2e1461031c5780634bcb64ba1461033e57600080fd5b806309e9d7e2116101e457806309e9d7e21461029457806309eef43e146102a75780630b97bc86146102ca5780630dbce4dd146102e157600080fd5b80630121b93f14610216578063013cf08b1461022b57806306a49fce1461025a57806308aff93314610271575b600080fd5b6102296102243660046121ab565b61052e565b005b61023e6102393660046121ab565b610716565b604051610251979695949392919061224c565b60405180910390f35b6102626107ee565b60405161025193929190612331565b61028461027f366004612390565b610adc565b6040519015158152602001610251565b6102296102a23660046121ab565b610b0b565b6102846102b53660046123bc565b600a6020526000908152604090205460ff1681565b6102d360085481565b604051908152602001610251565b6102296102ef3660046124a3565b610c52565b6103076103023660046123bc565b610d05565b6040516102519190612507565b6003546102d3565b61032f61032a3660046121ab565b610e11565b6040516102519392919061251a565b61030761034c3660046123bc565b610f5b565b610359610ff5565b6040516102519190612550565b61022961037436600461259d565b611057565b6102d36103873660046121ab565b6111a2565b61039f61039a3660046121ab565b6111c3565b6040516001600160a01b039091168152602001610251565b6102296103c53660046121ab565b6111ed565b6102d360045481565b60005461039f906001600160a01b031681565b6102846103f43660046123bc565b600b6020526000908152604090205460ff1681565b6102846104173660046123bc565b6001600160a01b03166000908152600b602052604090205460ff1690565b600d546102d3565b6102296112d8565b61044d61135f565b60405161025191906125e1565b6102296104683660046123bc565b6113b6565b61022961047b3660046125f4565b611543565b6102d360095481565b61049c6104973660046121ab565b6115f1565b60405161025196959493929190612616565b6102846104bc3660046123bc565b60016020526000908152604090205460ff1681565b6102d360055481565b610229611691565b6102296104f03660046124a3565b6117f9565b6102296105033660046125f4565b61185b565b61039f6105163660046121ab565b6118d4565b6102296105293660046121ab565b6118e4565b600854421015801561054257506009544211155b6105895760405162461bcd60e51b8152602060048201526013602482015272456c656374696f6e206e6f742061637469766560681b60448201526064015b60405180910390fd5b336000908152600b602052604090205460ff166105e85760405162461bcd60e51b815260206004820152601960248201527f4e494e20766572696669636174696f6e207265717569726564000000000000006044820152606401610580565b336000908152600a602052604090205460ff16156106385760405162461bcd60e51b815260206004820152600d60248201526c105b1c9958591e481d9bdd1959609a1b6044820152606401610580565b600354811061067d5760405162461bcd60e51b8152602060048201526011602482015270496e76616c69642063616e64696461746560781b6044820152606401610580565b60016003828154811061069257610692612657565b906000526020600020906003020160020160008282546106b29190612683565b9091555050336000818152600a60205260408120805460ff19166001908117909155600d805491820181559091527fd7b6990105719101dabeb77144f2a3385c8033acd3af97e9423a695e81ad1eb50180546001600160a01b031916909117905550565b600660205260009081526040902080546001820154600283018054929360ff9092169261074290612696565b80601f016020809104026020016040519081016040528092919081815260200182805461076e90612696565b80156107bb5780601f10610790576101008083540402835291602001916107bb565b820191906000526020600020905b81548152906001019060200180831161079e57829003601f168201915b50505060038401546004850154600586015460079096015494956001600160a01b039092169490935060ff909116915087565b606080606060038054905067ffffffffffffffff811115610811576108116123de565b60405190808252806020026020018201604052801561084457816020015b606081526020019060019003908161082f5790505b5060035490935067ffffffffffffffff811115610863576108636123de565b60405190808252806020026020018201604052801561089657816020015b60608152602001906001900390816108815790505b5060035490925067ffffffffffffffff8111156108b5576108b56123de565b6040519080825280602002602001820160405280156108de578160200160208202803683370190505b50905060005b600354811015610ad6576003818154811061090157610901612657565b9060005260206000209060030201600001805461091d90612696565b80601f016020809104026020016040519081016040528092919081815260200182805461094990612696565b80156109965780601f1061096b57610100808354040283529160200191610996565b820191906000526020600020905b81548152906001019060200180831161097957829003601f168201915b50505050508482815181106109ad576109ad612657565b6020026020010181905250600381815481106109cb576109cb612657565b906000526020600020906003020160010180546109e790612696565b80601f0160208091040260200160405190810160405280929190818152602001828054610a1390612696565b8015610a605780601f10610a3557610100808354040283529160200191610a60565b820191906000526020600020905b815481529060010190602001808311610a4357829003601f168201915b5050505050838281518110610a7757610a77612657565b602002602001018190525060038181548110610a9557610a95612657565b906000526020600020906003020160020154828281518110610ab957610ab9612657565b602090810291909101015280610ace816126d0565b9150506108e4565b50909192565b60008281526006602081815260408084206001600160a01b0386168552909201905290205460ff165b92915050565b3360009081526001602052604090205460ff16610b3a5760405162461bcd60e51b8152600401610580906126e9565b6003548110610b8b5760405162461bcd60e51b815260206004820152601760248201527f496e76616c69642063616e64696461746520696e6465780000000000000000006044820152606401610580565b60038054610b9b90600190612712565b81548110610bab57610bab612657565b906000526020600020906003020160038281548110610bcc57610bcc612657565b6000918252602090912060039091020180610be78382612774565b50600181810190610bfa90840182612774565b506002918201549101556003805480610c1557610c15612855565b60008281526020812060001990920191600383020190610c3582826120eb565b610c436001830160006120eb565b60028201600090555050905550565b3360009081526001602052604090205460ff16610c815760405162461bcd60e51b8152600401610580906126e9565b60408051606081018252838152602081018390526000918101829052600380546001810182559281905281519192027fc2575a0e9e593c00f959f8c92f12db2869c3395a3b0502d05e2516446f71f85b01908190610cdf908261286b565b5060208201516001820190610cf4908261286b565b506040820151816002015550505050565b6001600160a01b0381166000908152600b602052604090205460609060ff16610d695760405162461bcd60e51b8152602060048201526016602482015275159bdd195c881b9bdd08139253881d995c9a599a595960521b6044820152606401610580565b6001600160a01b0382166000908152600c602052604090208054610d8c90612696565b80601f0160208091040260200160405190810160405280929190818152602001828054610db890612696565b8015610e055780601f10610dda57610100808354040283529160200191610e05565b820191906000526020600020905b815481529060010190602001808311610de857829003601f168201915b50505050509050919050565b60038181548110610e2157600080fd5b9060005260206000209060030201600091509050806000018054610e4490612696565b80601f0160208091040260200160405190810160405280929190818152602001828054610e7090612696565b8015610ebd5780601f10610e9257610100808354040283529160200191610ebd565b820191906000526020600020905b815481529060010190602001808311610ea057829003601f168201915b505050505090806001018054610ed290612696565b80601f0160208091040260200160405190810160405280929190818152602001828054610efe90612696565b8015610f4b5780601f10610f2057610100808354040283529160200191610f4b565b820191906000526020600020905b815481529060010190602001808311610f2e57829003601f168201915b5050505050908060020154905083565b600c6020526000908152604090208054610f7490612696565b80601f0160208091040260200160405190810160405280929190818152602001828054610fa090612696565b8015610fed5780601f10610fc257610100808354040283529160200191610fed565b820191906000526020600020905b815481529060010190602001808311610fd057829003601f168201915b505050505081565b6060600280548060200260200160405190810160405280929190818152602001828054801561104d57602002820191906000526020600020905b81546001600160a01b0316815260019091019060200180831161102f575b5050505050905090565b3360009081526001602052604090205460ff166110865760405162461bcd60e51b8152600401610580906126e9565b6001600160a01b0382166110d45760405162461bcd60e51b8152602060048201526015602482015274496e76616c696420766f746572206164647265737360581b6044820152606401610580565b60008151116111255760405162461bcd60e51b815260206004820152601860248201527f4e494e20686173682063616e6e6f7420626520656d70747900000000000000006044820152606401610580565b6001600160a01b0382166000908152600b60209081526040808320805460ff19166001179055600c909152902061115c828261286b565b50816001600160a01b03167f9c8fb6c424e1b66d3d7cfdb608da95419772064b7b01504fbadf8b49b61e5871826040516111969190612507565b60405180910390a25050565b600781815481106111b257600080fd5b600091825260209091200154905081565b600d81815481106111d357600080fd5b6000918252602090912001546001600160a01b0316905081565b6000546001600160a01b0316331461123f5760405162461bcd60e51b81526020600482015260156024820152744f6e6c79206f776e65722063616e2075706461746560581b6044820152606401610580565b60008111801561125157506002548111155b61129d5760405162461bcd60e51b815260206004820152601a60248201527f496e76616c696420636f6e6669726d6174696f6e20636f756e740000000000006044820152606401610580565b60048190556040518181527f9d1f3334630bd26a53d2e3c360b09c02204844312bb0fc411686ab17fb2c1d6a9060200160405180910390a150565b3360009081526001602052604090205460ff166113075760405162461bcd60e51b8152600401610580906126e9565b6000604051602001611332906020808252600590820152641c995cd95d60da1b604082015260600190565b6040516020818303038152906040529050600061135060028361191f565b905061135b81611a40565b5050565b6060600780548060200260200160405190810160405280929190818152602001828054801561104d57602002820191906000526020600020905b815481526020019060010190808311611399575050505050905090565b6000546001600160a01b031633146114105760405162461bcd60e51b815260206004820152601c60248201527f4f6e6c79206f776e65722063616e20616464206f6666696369616c73000000006044820152606401610580565b6001600160a01b03811660009081526001602052604090205460ff161561146f5760405162461bcd60e51b8152602060048201526013602482015272105b1c9958591e48185b881bd9999a58da585b606a1b6044820152606401610580565b6001600160a01b0381166114b75760405162461bcd60e51b815260206004820152600f60248201526e496e76616c6964206164647265737360881b6044820152606401610580565b6001600160a01b0381166000818152600160208190526040808320805460ff19168317905560028054928301815583527f405787fa12a823e0f2b7631cc41b3ba8828b3321ca811111fa75cd3aa3bb5ace90910180546001600160a01b03191684179055517fcd902338c077954bb88183435a933f4d31a1251a6bc80aa0b0e6027111d6e8e89190a250565b3360009081526001602052604090205460ff166115725760405162461bcd60e51b8152600401610580906126e9565b8082106115b15760405162461bcd60e51b815260206004820152600d60248201526c496e76616c696420646174657360981b6044820152606401610580565b6040805160208101849052808201839052815180820383018152606090910190915260006115e060018361191f565b90506115eb81611a40565b50505050565b60008060008060008060055487106116455760405162461bcd60e51b8152602060048201526017602482015276141c9bdc1bdcd85b08191bd95cc81b9bdd08195e1a5cdd604a1b6044820152606401610580565b505050600093845250506006602052506040902080546001820154600383015460048401546005850154600790950154939560ff938416956001600160a01b0390931694919390921691565b3360009081526001602052604090205460ff166116c05760405162461bcd60e51b8152600401610580906126e9565b6116cc60036000612125565b60005b600d548110156117e0576000600a6000600d84815481106116f2576116f2612657565b6000918252602080832091909101546001600160a01b031683528201929092526040018120805460ff191692151592909217909155600d8054600b9183918590811061174057611740612657565b6000918252602080832091909101546001600160a01b031683528281019390935260409182018120805460ff19169415159490941790935580519182019052818152600d80549192600c929091908590811061179e5761179e612657565b60009182526020808320909101546001600160a01b031683528201929092526040019020906117cd908261286b565b50806117d8816126d0565b9150506116cf565b506117ed600d6000612146565b60006008819055600955565b3360009081526001602052604090205460ff166118285760405162461bcd60e51b8152600401610580906126e9565b6000828260405160200161183d929190612925565b604051602081830303815290604052905060006115e060008361191f565b3360009081526001602052604090205460ff1661188a5760405162461bcd60e51b8152600401610580906126e9565b8082106118c95760405162461bcd60e51b815260206004820152600d60248201526c496e76616c696420646174657360981b6044820152606401610580565b600891909155600955565b600281815481106111d357600080fd5b3360009081526001602052604090205460ff166119135760405162461bcd60e51b8152600401610580906126e9565b61191c81611a40565b50565b6005805460009182919082611933836126d0565b909155506000818152600660205260409020818155600190810180549293508692909160ff199091169083600481111561196f5761196f6121c4565b0217905550600081815260066020526040902060020161198f848261286b565b506000818152600660205260408082206003810180546001600160a01b031916339081179091556004820184905560058201805460ff19169055426007928301558154600181018355919093527fa66cc928b5edb82af9bd49922954155ab7b0942694bea4ce44661d9a8736c688018390555182907f3263432a41f78a4701cc9465f62411ed717ade32290c084135a3dd6b29f4bf2890611a31908890612953565b60405180910390a39392505050565b6005548110611a8b5760405162461bcd60e51b8152602060048201526017602482015276141c9bdc1bdcd85b08191bd95cc81b9bdd08195e1a5cdd604a1b6044820152606401610580565b60008181526006602052604090206005015460ff1615611aed5760405162461bcd60e51b815260206004820152601960248201527f50726f706f73616c20616c7265616479206578656375746564000000000000006044820152606401610580565b6000818152600660208181526040808420338552909201905290205460ff1615611b4d5760405162461bcd60e51b8152602060048201526011602482015270105b1c9958591e4818dbdb999a5c9b5959607a1b6044820152606401610580565b60008181526006602081815260408084203385528084018352908420805460ff1916600190811790915585855292909152600401805491929091611b92908490612683565b9091555050604051339082907ffde7b8a92c767d46da889d2526f0fa0dd074cc73fb01212122ad9368d18390a490600090a3600480546000838152600660205260409020909101541061191c5761191c8160008181526006602052604090206005015460ff1615611c385760405162461bcd60e51b815260206004820152601060248201526f105b1c9958591e48195e1958dd5d195960821b6044820152606401610580565b600081815260066020526040812060058101805460ff19166001908117909155015460ff166004811115611c6e57611c6e6121c4565b03611db05760008181526006602052604081206002018054829190611c9290612696565b80601f0160208091040260200160405190810160405280929190818152602001828054611cbe90612696565b8015611d0b5780601f10611ce057610100808354040283529160200191611d0b565b820191906000526020600020905b815481529060010190602001808311611cee57829003601f168201915b5050505050806020019051810190611d2391906129ae565b60408051606081018252838152602081018390526000918101829052600380546001810182559281905281519496509294509291027fc2575a0e9e593c00f959f8c92f12db2869c3395a3b0502d05e2516446f71f85b01908190611d87908261286b565b5060208201516001820190611d9c908261286b565b506040820151816002015550505050612003565b600160008281526006602052604090206001015460ff166004811115611dd857611dd86121c4565b03611e9e5760008181526006602052604081206002018054829190611dfc90612696565b80601f0160208091040260200160405190810160405280929190818152602001828054611e2890612696565b8015611e755780601f10611e4a57610100808354040283529160200191611e75565b820191906000526020600020905b815481529060010190602001808311611e5857829003601f168201915b5050505050806020019051810190611e8d9190612a08565b600891909155600955506120039050565b600260008281526006602052604090206001015460ff166004811115611ec657611ec66121c4565b0361200357611ed760036000612125565b60005b600d54811015611feb576000600a6000600d8481548110611efd57611efd612657565b6000918252602080832091909101546001600160a01b031683528201929092526040018120805460ff191692151592909217909155600d8054600b91839185908110611f4b57611f4b612657565b6000918252602080832091909101546001600160a01b031683528281019390935260409182018120805460ff19169415159490941790935580519182019052818152600d80549192600c9290919085908110611fa957611fa9612657565b60009182526020808320909101546001600160a01b03168352820192909252604001902090611fd8908261286b565b5080611fe3816126d0565b915050611eda565b50611ff8600d6000612146565b600060088190556009555b60005b6007548110156120bc57816007828154811061202457612024612657565b9060005260206000200154036120aa576007805461204490600190612712565b8154811061205457612054612657565b90600052602060002001546007828154811061207257612072612657565b600091825260209091200155600780548061208f5761208f612855565b600190038181906000526020600020016000905590556120bc565b806120b4816126d0565b915050612006565b5060405181907f712ae1383f79ac853f8d882153778e0260ef8f03b504e2866e0593e04d2b291f90600090a250565b5080546120f790612696565b6000825580601f10612107575050565b601f01602090049060005260206000209081019061191c9190612160565b508054600082556003029060005260206000209081019061191c9190612179565b508054600082559060005260206000209081019061191c91905b5b808211156121755760008155600101612161565b5090565b8082111561217557600061218d82826120eb565b61219b6001830160006120eb565b5060006002820155600301612179565b6000602082840312156121bd57600080fd5b5035919050565b634e487b7160e01b600052602160045260246000fd5b600581106121f857634e487b7160e01b600052602160045260246000fd5b9052565b60005b838110156122175781810151838201526020016121ff565b50506000910152565b600081518084526122388160208601602086016121fc565b601f01601f19169290920160200192915050565b87815261225c60208201886121da565b60e06040820152600061227260e0830188612220565b6001600160a01b0396909616606083015250608081019390935290151560a083015260c0909101529392505050565b600081518084526020808501808196508360051b8101915082860160005b858110156122e95782840389526122d7848351612220565b988501989350908401906001016122bf565b5091979650505050505050565b600081518084526020808501945080840160005b838110156123265781518752958201959082019060010161230a565b509495945050505050565b60608152600061234460608301866122a1565b828103602084015261235681866122a1565b9050828103604084015261236a81856122f6565b9695505050505050565b80356001600160a01b038116811461238b57600080fd5b919050565b600080604083850312156123a357600080fd5b823591506123b360208401612374565b90509250929050565b6000602082840312156123ce57600080fd5b6123d782612374565b9392505050565b634e487b7160e01b600052604160045260246000fd5b604051601f8201601f1916810167ffffffffffffffff8111828210171561241d5761241d6123de565b604052919050565b600067ffffffffffffffff82111561243f5761243f6123de565b50601f01601f191660200190565b600082601f83011261245e57600080fd5b813561247161246c82612425565b6123f4565b81815284602083860101111561248657600080fd5b816020850160208301376000918101602001919091529392505050565b600080604083850312156124b657600080fd5b823567ffffffffffffffff808211156124ce57600080fd5b6124da8683870161244d565b935060208501359150808211156124f057600080fd5b506124fd8582860161244d565b9150509250929050565b6020815260006123d76020830184612220565b60608152600061252d6060830186612220565b828103602084015261253f8186612220565b915050826040830152949350505050565b6020808252825182820181905260009190848201906040850190845b818110156125915783516001600160a01b03168352928401929184019160010161256c565b50909695505050505050565b600080604083850312156125b057600080fd5b6125b983612374565b9150602083013567ffffffffffffffff8111156125d557600080fd5b6124fd8582860161244d565b6020815260006123d760208301846122f6565b6000806040838503121561260757600080fd5b50508035926020909101359150565b86815260c0810161262a60208301886121da565b6001600160a01b039590951660408201526060810193909352901515608083015260a09091015292915050565b634e487b7160e01b600052603260045260246000fd5b634e487b7160e01b600052601160045260246000fd5b80820180821115610b0557610b0561266d565b600181811c908216806126aa57607f821691505b6020821081036126ca57634e487b7160e01b600052602260045260246000fd5b50919050565b6000600182016126e2576126e261266d565b5060010190565b6020808252600f908201526e139bdd08185b881bd9999a58da585b608a1b604082015260600190565b81810381811115610b0557610b0561266d565b601f82111561276f57600081815260208120601f850160051c8101602086101561274c5750805b601f850160051c820191505b8181101561276b57828155600101612758565b5050505b505050565b81810361277f575050565b6127898254612696565b67ffffffffffffffff8111156127a1576127a16123de565b6127b5816127af8454612696565b84612725565b6000601f8211600181146127e957600083156127d15750848201545b600019600385901b1c1916600184901b17845561284e565b600085815260209020601f19841690600086815260209020845b838110156128235782860154825560019586019590910190602001612803565b50858310156128415781850154600019600388901b60f8161c191681555b50505060018360011b0184555b5050505050565b634e487b7160e01b600052603160045260246000fd5b815167ffffffffffffffff811115612885576128856123de565b612893816127af8454612696565b602080601f8311600181146128c857600084156128b05750858301515b600019600386901b1c1916600185901b17855561276b565b600085815260208120601f198616915b828110156128f7578886015182559484019460019091019084016128d8565b50858210156129155787850151600019600388901b60f8161c191681555b5050505050600190811b01905550565b6040815260006129386040830185612220565b828103602084015261294a8185612220565b95945050505050565b60208101610b0582846121da565b600082601f83011261297257600080fd5b815161298061246c82612425565b81815284602083860101111561299557600080fd5b6129a68260208301602087016121fc565b949350505050565b600080604083850312156129c157600080fd5b825167ffffffffffffffff808211156129d957600080fd5b6129e586838701612961565b935060208501519150808211156129fb57600080fd5b506124fd85828601612961565b60008060408385031215612a1b57600080fd5b50508051602090910151909290915056fea2646970667358221220626e24311f68d98fca9bdace1678663ac7861c269ccd41e27d9210cb202a91f664736f6c63430008130033",
  "immutableReferences": {},
  "source": "// SPDX-License-Identifier: MIT\r\npragma solidity ^0.8.0;\r\n\r\ncontract VotingSys {\r\n    struct Candidate {\r\n        string name;\r\n        string party;\r\n        uint votes;\r\n    }\r\n    \r\n    struct Proposal {\r\n        uint id;\r\n        ProposalType proposalType;\r\n        bytes data;\r\n        address proposer;\r\n        uint confirmations;\r\n        bool executed;\r\n        mapping(address => bool) confirmed;\r\n        uint timestamp;\r\n    }\r\n    \r\n    enum ProposalType {\r\n        ADD_CANDIDATE,\r\n        SET_ELECTION_DATES,\r\n        RESET_ELECTION,\r\n        ADD_OFFICIAL,\r\n        REMOVE_OFFICIAL\r\n    }\r\n\r\n    address public owner;\r\n    mapping(address => bool) public officials;\r\n    address[] public officialsList;\r\n    Candidate[] public candidates;\r\n    \r\n    // Multi-signature functionality\r\n    uint public requiredConfirmations;\r\n    uint public proposalCount;\r\n    mapping(uint => Proposal) public proposals;\r\n    uint[] public pendingProposals;\r\n\r\n    uint public startDate;\r\n    uint public endDate;\r\n\r\n    mapping(address => bool) public hasVoted;\r\n    mapping(address => bool) public ninVerified; // Track NIN-verified accounts\r\n    mapping(address => string) public voterNIN; // Store verified NIN for each voter\r\n    address[] public votersList; // Track all voters for reset functionality\r\n\r\n    constructor() {\r\n        owner = msg.sender;\r\n        officials[msg.sender] = true;\r\n        officialsList.push(msg.sender);\r\n        requiredConfirmations = 1; // Start with 1, can be updated\r\n    }\r\n    \r\n    // Events for multi-signature operations\r\n    event ProposalCreated(uint indexed proposalId, ProposalType proposalType, address indexed proposer);\r\n    event ProposalConfirmed(uint indexed proposalId, address indexed official);\r\n    event ProposalExecuted(uint indexed proposalId);\r\n    event OfficialAdded(address indexed official);\r\n    event OfficialRemoved(address indexed official);\r\n    event RequiredConfirmationsChanged(uint newRequiredConfirmations);\r\n    event VoterNINVerified(address indexed voter, string ninHash);\r\n\r\n    modifier onlyOfficial() {\r\n        require(officials[msg.sender], \"Not an official\");\r\n        _;\r\n    }\r\n\r\n    modifier electionActive() {\r\n        require(\r\n            block.timestamp >= startDate && block.timestamp <= endDate,\r\n            \"Election not active\"\r\n        );\r\n        _;\r\n    }\r\n\r\n    modifier onlyNINVerified() {\r\n        require(ninVerified[msg.sender], \"NIN verification required\");\r\n        _;\r\n    }\r\n\r\n    function registerCandidate(\r\n        string memory _name,\r\n        string memory _party\r\n    ) external onlyOfficial {\r\n        candidates.push(Candidate(_name, _party, 0));\r\n    }\r\n\r\n    function setElectionDates(uint _start, uint _end) external onlyOfficial {\r\n        require(_start < _end, \"Invalid dates\");\r\n        startDate = _start;\r\n        endDate = _end;\r\n    }\r\n\r\n    // Function for officials to verify voter NIN\r\n    function verifyVoterNIN(address _voter, string memory _ninHash) external onlyOfficial {\r\n        require(_voter != address(0), \"Invalid voter address\");\r\n        require(bytes(_ninHash).length > 0, \"NIN hash cannot be empty\");\r\n        \r\n        ninVerified[_voter] = true;\r\n        voterNIN[_voter] = _ninHash;\r\n        \r\n        emit VoterNINVerified(_voter, _ninHash);\r\n    }\r\n\r\n    function vote(uint _candidateIndex) external electionActive onlyNINVerified {\r\n        require(!hasVoted[msg.sender], \"Already voted\");\r\n        require(_candidateIndex < candidates.length, \"Invalid candidate\");\r\n\r\n        candidates[_candidateIndex].votes += 1;\r\n        hasVoted[msg.sender] = true;\r\n\r\n        // Track voter for reset functionality\r\n        votersList.push(msg.sender);\r\n    }\r\n\r\n    // New function: Reset election - clears all candidates, votes, and voting records\r\n    function resetElection() external onlyOfficial {\r\n        // Clear all candidates\r\n        delete candidates;\r\n\r\n        // Reset all voters' voting status and NIN verifications\r\n        for (uint i = 0; i < votersList.length; i++) {\r\n            hasVoted[votersList[i]] = false;\r\n            ninVerified[votersList[i]] = false;\r\n            voterNIN[votersList[i]] = \"\";\r\n        }\r\n\r\n        // Clear voters list\r\n        delete votersList;\r\n\r\n        // Reset election dates\r\n        startDate = 0;\r\n        endDate = 0;\r\n    }\r\n\r\n    // New function: Remove specific candidate (alternative to full reset)\r\n    function removeCandidate(uint _candidateIndex) external onlyOfficial {\r\n        require(_candidateIndex < candidates.length, \"Invalid candidate index\");\r\n\r\n        // Move the last candidate to the deleted position\r\n        candidates[_candidateIndex] = candidates[candidates.length - 1];\r\n\r\n        // Remove the last candidate\r\n        candidates.pop();\r\n    }\r\n\r\n    // Return separate arrays to avoid Web3 decoding errors\r\n    function getCandidates()\r\n        external\r\n        view\r\n        returns (\r\n            string[] memory names,\r\n            string[] memory parties,\r\n            uint[] memory votes\r\n        )\r\n    {\r\n        names = new string[](candidates.length);\r\n        parties = new string[](candidates.length);\r\n        votes = new uint[](candidates.length);\r\n\r\n        for (uint i = 0; i < candidates.length; i++) {\r\n            names[i] = candidates[i].name;\r\n            parties[i] = candidates[i].party;\r\n            votes[i] = candidates[i].votes;\r\n        }\r\n    }\r\n\r\n    // Get total number of candidates\r\n    function getCandidateCount() external view returns (uint) {\r\n        return candidates.length;\r\n    }\r\n\r\n    // Get total number of votes cast\r\n    function getTotalVotes() external view returns (uint) {\r\n        return votersList.length;\r\n    }\r\n\r\n    // Check if voter is NIN verified\r\n    function isNINVerified(address _voter) external view returns (bool) {\r\n        return ninVerified[_voter];\r\n    }\r\n\r\n    // Get voter's NIN hash (only returns if verified)\r\n    function getVoterNINHash(address _voter) external view returns (string memory) {\r\n        require(ninVerified[_voter], \"Voter not NIN verified\");\r\n        return voterNIN[_voter];\r\n    }\r\n    \r\n    // ============ MULTI-SIGNATURE FUNCTIONS ============\r\n    \r\n    // Update required confirmations (only by owner)\r\n    function updateRequiredConfirmations(uint _required) external {\r\n        require(msg.sender == owner, \"Only owner can update\");\r\n        require(_required > 0 && _required <= officialsList.length, \"Invalid confirmation count\");\r\n        requiredConfirmations = _required;\r\n        emit RequiredConfirmationsChanged(_required);\r\n    }\r\n    \r\n    // Add new official\r\n    function addOfficial(address _official) external {\r\n        require(msg.sender == owner, \"Only owner can add officials\");\r\n        require(!officials[_official], \"Already an official\");\r\n        require(_official != address(0), \"Invalid address\");\r\n        \r\n        officials[_official] = true;\r\n        officialsList.push(_official);\r\n        emit OfficialAdded(_official);\r\n    }\r\n    \r\n    // Propose to add candidate (multi-sig version)\r\n    function proposeAddCandidate(string memory _name, string memory _party) external onlyOfficial {\r\n        bytes memory data = abi.encode(_name, _party);\r\n        uint proposalId = _createProposal(ProposalType.ADD_CANDIDATE, data);\r\n        \r\n        // Auto-confirm own proposal\r\n        _confirmProposal(proposalId);\r\n    }\r\n    \r\n    // Propose to set election dates (multi-sig version)\r\n    function proposeSetElectionDates(uint _start, uint _end) external onlyOfficial {\r\n        require(_start < _end, \"Invalid dates\");\r\n        bytes memory data = abi.encode(_start, _end);\r\n        uint proposalId = _createProposal(ProposalType.SET_ELECTION_DATES, data);\r\n        \r\n        // Auto-confirm own proposal\r\n        _confirmProposal(proposalId);\r\n    }\r\n    \r\n    // Propose to reset election (multi-sig version)\r\n    function proposeResetElection() external onlyOfficial {\r\n        bytes memory data = abi.encode(\"reset\");\r\n        uint proposalId = _createProposal(ProposalType.RESET_ELECTION, data);\r\n        \r\n        // Auto-confirm own proposal\r\n        _confirmProposal(proposalId);\r\n    }\r\n    \r\n    // Confirm a proposal\r\n    function confirmProposal(uint _proposalId) external onlyOfficial {\r\n        _confirmProposal(_proposalId);\r\n    }\r\n    \r\n    // Internal function to create proposal\r\n    function _createProposal(ProposalType _type, bytes memory _data) internal returns (uint) {\r\n        uint proposalId = proposalCount++;\r\n        \r\n        proposals[proposalId].id = proposalId;\r\n        proposals[proposalId].proposalType = _type;\r\n        proposals[proposalId].data = _data;\r\n        proposals[proposalId].proposer = msg.sender;\r\n        proposals[proposalId].confirmations = 0;\r\n        proposals[proposalId].executed = false;\r\n        proposals[proposalId].timestamp = block.timestamp;\r\n        \r\n        pendingProposals.push(proposalId);\r\n        \r\n        emit ProposalCreated(proposalId, _type, msg.sender);\r\n        return proposalId;\r\n    }\r\n    \r\n    // Internal function to confirm proposal\r\n    function _confirmProposal(uint _proposalId) internal {\r\n        require(_proposalId < proposalCount, \"Proposal does not exist\");\r\n        require(!proposals[_proposalId].executed, \"Proposal already executed\");\r\n        require(!proposals[_proposalId].confirmed[msg.sender], \"Already confirmed\");\r\n        \r\n        proposals[_proposalId].confirmed[msg.sender] = true;\r\n        proposals[_proposalId].confirmations += 1;\r\n        \r\n        emit ProposalConfirmed(_proposalId, msg.sender);\r\n        \r\n        // Execute if enough confirmations\r\n        if (proposals[_proposalId].confirmations >= requiredConfirmations) {\r\n            _executeProposal(_proposalId);\r\n        }\r\n    }\r\n    \r\n    // Execute proposal\r\n    function _executeProposal(uint _proposalId) internal {\r\n        require(!proposals[_proposalId].executed, \"Already executed\");\r\n        \r\n        proposals[_proposalId].executed = true;\r\n        \r\n        if (proposals[_proposalId].proposalType == ProposalType.ADD_CANDIDATE) {\r\n            (string memory name, string memory party) = abi.decode(proposals[_proposalId].data, (string, string));\r\n            candidates.push(Candidate(name, party, 0));\r\n            \r\n        } else if (proposals[_proposalId].proposalType == ProposalType.SET_ELECTION_DATES) {\r\n            (uint start, uint end) = abi.decode(proposals[_proposalId].data, (uint, uint));\r\n            startDate = start;\r\n            endDate = end;\r\n            \r\n        } else if (proposals[_proposalId].proposalType == ProposalType.RESET_ELECTION) {\r\n            // Clear all candidates\r\n            delete candidates;\r\n            \r\n            // Reset all voters' voting status and NIN verifications\r\n            for (uint i = 0; i < votersList.length; i++) {\r\n                hasVoted[votersList[i]] = false;\r\n                ninVerified[votersList[i]] = false;\r\n                voterNIN[votersList[i]] = \"\";\r\n            }\r\n            \r\n            // Clear voters list\r\n            delete votersList;\r\n            \r\n            // Reset election dates\r\n            startDate = 0;\r\n            endDate = 0;\r\n        }\r\n        \r\n        // Remove from pending proposals\r\n        for (uint i = 0; i < pendingProposals.length; i++) {\r\n            if (pendingProposals[i] == _proposalId) {\r\n                pendingProposals[i] = pendingProposals[pendingProposals.length - 1];\r\n                pendingProposals.pop();\r\n                break;\r\n            }\r\n        }\r\n        \r\n        emit ProposalExecuted(_proposalId);\r\n    }\r\n    \r\n    // Get proposal details\r\n    function getProposal(uint _proposalId) external view returns (\r\n        uint id,\r\n        ProposalType proposalType,\r\n        address proposer,\r\n        uint confirmations,\r\n        bool executed,\r\n        uint timestamp\r\n    ) {\r\n        require(_proposalId < proposalCount, \"Proposal does not exist\");\r\n        \r\n        Proposal storage proposal = proposals[_proposalId];\r\n        return (\r\n            proposal.id,\r\n            proposal.proposalType,\r\n            proposal.proposer,\r\n            proposal.confirmations,\r\n            proposal.executed,\r\n            proposal.timestamp\r\n        );\r\n    }\r\n    \r\n    // Get pending proposals\r\n    function getPendingProposals() external view returns (uint[] memory) {\r\n        return pendingProposals;\r\n    }\r\n    \r\n    // Get officials list\r\n    function getOfficials() external view returns (address[] memory) {\r\n        return officialsList;\r\n    }\r\n    \r\n    // Check if address has confirmed a proposal\r\n    function hasConfirmed(uint _proposalId, address _official) external view returns (bool) {\r\n        return proposals[_proposalId].confirmed[_official];\r\n    }\r\n}",
  "sourcePath": "C:\\Users\\HP\\Desktop\\BLOCKELECT-Blockchain-Based-Secure-Voting-System\\contracts\\VotingSys.sol",
  "compiler": {
    "name": "solc",
    "version": "0.8.19+commit.7dd6d404.Emscripten.clang"
  },
  "schemaVersion": "3.4.16",
  "updatedAt": "2025-09-08T04:00:12.048Z",
  "networkType": "ethereum",
  "devdoc": {
    "kind": "dev",
    "methods": {},
    "version": 1
  },
  "userdoc": {
    "kind": "user",
    "methods": {},
    "version": 1
  }
}